:020000021000EC
:1060000000400020916F0100D96F0100DB6F01009B
:106010000000000000000000000000000000000080
:10602000000000000000000000000000DD6F010023
:106030000000000000000000DF6F0100E16F0100C0
:10604000E36F0100E36F0100E36F0100E36F010004
:10605000E36F010000000000E36F0100E36F010047
:10606000E36F0100E36F0100DD6A0100E36F0100EF
:10607000E36F0100E36F0100E36F0100E36F0100D4
:10608000E36F0100E36F0100E36F0100E36F0100C4
:10609000E36F0100E36F0100E36F0100E36F0100B4
:1060A000E36F0100E36F010000000000000000004A
:1060B00000000000000000000000000000000000E0
:1060C00010B5064C2378002B07D1054B002B02D0CE
:1060D000044800E000BF0123237010BD4C240020C1
:1060E000000000001C75010008B5084B002B03D010
:1060F0000748084900E000BF07480368002B03D0A9
:10610000064B002B00D0984708BDC0460000000099
:106110001C750100502400204824002000000000CD
:10612000164B002B00D1144B9D46402292029A1A26
:10613000924600218B460F461348144A121A01F06A
:1061400017F80F4B002B00D098470E4B002B00D0B8
:1061500098470020002104000D000D48002802D0BF
:106160000C4801F0FBF800F09DFF2000290000F032
:106170002DF800F087FFC046000008000040002016
:1061800000000000000000004C240020B824002083
:106190005D7301006D73010080B582B000AF78605F
:1061A000C046C046C046C046C046C046C046C046BF
:1061B000C046C046C046C046C046C0467B68013B9C
:1061C0007B60002BECD1BD4602B080BD80B586B0AF
:1061D00000AF00237B613A1C2D4B111C1A1C1223AB
:1061E000081C111C1A1C00F081FF3B1C01225A7470
:1061F0003B1C04221A703B1C08225A703B1C0922CB
:106200009A703B1C0A22DA703B1C0B221A713B1C51
:10621000181C00F01DFA1F4A7B69D3181B78002058
:10622000191C00F0BFFB7B691933181C642100F0B6
:106230001DFF0B1C174AD35C0120191C00F0B2FB98
:106240007B693233181C642100F010FF0B1C114ACB
:10625000D35C0220191C00F0A5FB7B694B33181C92
:10626000642100F003FF0B1C0A4AD35C0320191CB5
:1062700000F098FB7B690133181C642100F0F6FEE6
:106280000B1C7B61FA235B01181CFFF785FFC2E73B
:10629000DC7401007874010080B582B000AF021C8C
:1062A000FB1D1A70064BFA1D1278111C1F220A40A2
:1062B0000121081C9040021C1A60BD4602B080BD3E
:1062C00000E100E080B582B000AF021CFB1D1A7037
:1062D000084AFB1D1B78191C1F230B400121081CB9
:1062E0009840031C191C80235B00D150BD4602B0AE
:1062F00080BDC04600E100E0B0B582B000AF021C36
:106300003960FB1D1A70FB1D1B787F2B32D9304979
:10631000FB1D1B781A1C0F231340083B98082C4ABE
:10632000FB1D1B781C1C0F232340083B9B080633D6
:106330009B00D3185B68FA1D1278141C03222240BC
:10634000D200FF24251C95402A1CD2431A403B68EA
:106350009C01FF231C40FB1D1B781D1C03232B40AD
:10636000DB00251C9D402B1C1A43831D9B00CB1872
:106370005A6029E0174BFA1D127852B2920815495B
:10638000F81D007840B28008C03080004158F81DE8
:106390000078041C03202040C000FF24251C8540F9
:1063A000281CC043084039688C01FF210C40F91DAE
:1063B00009780D1C03212940C900251C8D40291C8A
:1063C0000143C0329200D150BD4602B0B0BDC046BC
:1063D00000ED00E000E100E080B584B000AFF860BF
:1063E000B960111C1A1CFB1D1970BB1D1A70BB1D56
:1063F0001B78002B11D1A023DA05BB680121081CF2
:106400009840031C191C1E4BD1501E4BFA68453294
:10641000FF3292001C49D15011E0A023DA05BB687D
:106420000121081C9840031C191CA123DB00D1503A
:10643000144BFA684532FF3292001449D150C046DD
:10644000C046C0460F4BFA6892000121D1500D4B57
:10645000BA681102FA1D127812041143BA1D12789B
:1064600012050A4303211143FA684532FF329200B4
:10647000D150C046C046C046BD4604B080BDC046EF
:106480000C05000000600040031F0200031F010014
:1064900080B582B000AF7860044B7A684532FF3235
:1064A00092000349D150BD4602B080BD006000405B
:1064B000001F030080B582B000AF7860A023DB0529
:1064C0007A68C132FF3292000321D150BD4602B03A
:1064D00080BDC04680B582B000AF7860A023DA05E9
:1064E0007B6801219940A123DB00D150BD4602B059
:1064F00080BDC04680B582B000AF7860A023DA05C9
:106500007B6801219940024BD150BD4602B080BD4D
:106510000C05000080B582B000AF786039603B6840
:10652000002B04D17B68181CFFF7E4FF03E07B68B5
:10653000181CFFF7CFFFBD4602B080BD80B582B00A
:1065400000AF78600A1CFB1C1A707A680D4B9A42E7
:1065500004D10D4BFA1C12781A6010E07A680B4BCC
:106560009A4204D10A4BFA1C12781A6007E07A6842
:10657000084B9A4203D1084BFA1C12781A60BD46A8
:1065800002B080BD008000400C8C004000900040B4
:106590000C9C004000A000400CAC004080B582B0D4
:1065A00000AF78603960144B1B683A689A4211D882
:1065B0007A683B689A420BD3104B1A683B68D21832
:1065C0000D4B1B68D21A7B689A4201D901230FE058
:1065D00000230DE0084B1B683A68D21A7B689A4288
:1065E00003D87A683B689A4201D3012300E0002374
:1065F000181CBD4602B080BD042000206824002085
:1066000080B584B000AFF860B9607A60FB680F2B8A
:1066100000D915E00C4BB968FA68A232D200D1500B
:1066200009497A68FB68A233DB00CB185A60064A36
:10663000FB680121081C9840031C191C034BD15016
:10664000BD4604B080BDC04600F001400405000016
:10665000B0B586B000AF78607B681B78002B03D0A4
:106660007B681B78042B02D901235B4272E17B68B3
:106670005B7C052B3BD89A00B84BD3181B689F4610
:10668000B74AA223DB000921D150B64B64221A601D
:1066900030E0B34AA223DB000921D150B14BFF22E5
:1066A0001A6027E0AE4AA223DB000621D150AD4B91
:1066B000FA2292001A601DE0A94AA223DB000321FE
:1066C000D150A84B64221A6014E0A54AA223DB0033
:1066D0000121D150A34BFF221A600BE0A04AA22354
:1066E000DB000021D1509F4BFF221A6002E0012302
:1066F0005B422FE19A4AA223DB00D3589A4AD35C2B
:106700001A1C9A4B1A607B681B781A1C984B1A60EB
:1067100000237B6121E07A687B69D31801331B7801
:10672000191C944B7A699200D150924B7A6992006D
:10673000D358181CFFF7BEFE8F4B7A6992000021D8
:10674000D1507A687B69D3180D331A788B497B69ED
:10675000CB181A707B6901337B617A69844B1B68A3
:106760009A42D8D37E4B0122DA607D4AA123DB0016
:106770000021D1507A4A7B4B1968814B1960804BBC
:106780001968A923DB00D150754A7E4B0021D150F6
:10679000734A80239B000421D15071497048704C8A
:1067A0006F4D0023A6225200AB50A4225200A350EA
:1067B000A22252008350A02252008B506C4B1B68C7
:1067C000022B33D9704B0122DA606F4AA123DB0020
:1067D0000021D1506C4A634B1968694B1960684BB2
:1067E0001968A923DB00D150674A664B0021D150BC
:1067F000654A80239B000421D15063496248624C62
:10680000614D0023A6225200AB50A4225200A35097
:10681000A22252008350A02252008B505A4A504963
:10682000A223DB00C958A223DB00D15000233B6127
:1068300031E03B695B007A68D3185B79191C3B69CE
:106840009B0052481A184D483B69C3181B789B009F
:106850004F481B18081C111C1A1CFFF7D1FE3B697E
:106860005B0001337A68D3185B79191C434A3B6992
:10687000D3181B789B00464A9B18464A081C111CDB
:106880001A1CFFF7BDFE444A3B69D31800221A7058
:106890003B6901333B613A69354B1B689A4202D22E
:1068A0003B69012BC5DD0223FB6032E0FB685B0026
:1068B0007A68D3185B79191CFB68023B9B00374848
:1068C0001A182E48FB68C3181B789B0030481B1809
:1068D000081C111C1A1CFFF793FEFB685B000133B8
:1068E0007A68D3185B79191C244AFB68D3181B7883
:1068F0009B00274A9B182A4A081C111C1A1CFFF7E8
:106900007FFE254AFB68D31800221A70FB6801330A
:10691000FB60FA68164B1B689A42C7D30A20002115
:10692000FFF7EAFC0A20FFF7B7FC0D4B181C01210A
:10693000FFF704FE0A4B01221A600D4B1B68022B65
:1069400007D9114B181C0121FFF7F8FD0E4B01224E
:106950001A600023181CBD4606B0B0BDFC740100CF
:1069600000A0004068240020F074010004200020F2
:10697000A82400208024002090240020A4240020AB
:106980007C240020040500000090004040A100404D
:106990000060004048A10040A02400204091004039
:1069A0004891004080B582B000AF78603960084BF4
:1069B0007A6892003968D150064A7B68D318012260
:1069C0001A700A20FFF77EFCBD4602B080BDC046AB
:1069D0006C240020A024002080B584B000AF786033
:1069E00039600023FB6010E0FB689B003A68D31815
:1069F00019680B4BFA689200D1500A4AFB68D31809
:106A000001221A70FB680133FB60FA687B689A42C6
:106A1000EAD30A20FFF756FCBD4604B080BDC0464D
:106A20006C240020A024002080B582B000AF7860E4
:106A3000024B7A681A60BD4602B080BD7C240020FB
:106A400080B584B000AF021CFB1D1A70FB1D1B78C3
:106A5000002B0AD01B4B01221A601B4B1B68022B18
:106A60002CD91A4B01221A6028E0164B01225A60D9
:106A7000154B1B68022B02D9144B01225A600023CC
:106A8000FB6016E0124AFB68D3181B78181CFFF74E
:106A9000FFFC104BFA689200D358181C0021FFF736
:106AA00039FD0D4BFA6892000021D150FB6801338B
:106AB000FB60054B1B68FA689A42E3D3BD4604B0FD
:106AC00080BDC04600A00040A824002000900040E7
:106AD000A4240020802400209024002098B500AF3A
:106AE000D24AD34B1968D34B1960D24B1968A923EA
:106AF000DB00D150D04B1B68022B05D9CF4ACD4BC0
:106B00001968A923DB00D150CD4B00221A6083E124
:106B1000CB4B1B68CB4AD35C002B00D177E1C84B31
:106B20001B68C84A0021D154C54B1A68C64B920055
:106B3000D358002B16D1C24B1B68C44AD35C181C17
:106B4000FFF7A6FCBE4B1A68C14B9200D358181C25
:106B50000021FFF7DFFCBA4B1A68BE4B9200002100
:106B6000D15054E1B64B1A68B74B9200D258B14B92
:106B70001B689A4216D3B24B1B68B44AD35C181CEC
:106B8000FFF786FCAE4B1A68B14B9200D358181C25
:106B90000121FFF7BFFCAA4B1A68AE4B92000021FF
:106BA000D15034E1A64B1B68012B00D996E0A44BD1
:106BB0001A68A54B9200D258A74B1A609B4AA04B6B
:106BC0001B685133FF339B009A58A44B1A609C4BAF
:106BD0001A68A04B9200D358002B32D1984B1B68F7
:106BE0009A4AD35C1A1C964B1968994B8900CB586A
:106BF000101C191C03220123FFF7EEFB904B1A68AF
:106C0000944B92000121D150884B0122DA64874ACB
:106C1000934BD258904B1B689A4207D9914A884BA4
:106C20001B688A49CB5C9B00012199507F4A844BA9
:106C30001868894B1968A824640003199B009950AF
:106C4000E5E07A4B0122DA64784A854BD258834BCF
:106C50001B68101C191CFFF7A1FC031C002B14D08F
:106C6000724A7F4BD2587C4B1B68101C191CFFF7D3
:106C700095FC031C002B08D0C0466C4A784BD258B8
:106C8000764B1B689A4208D300E0DAE7674A744BF8
:106C9000D258714B1B689A420DD3644A704BD2583C
:106CA0006E4B1B689A420ED2604A6D4BD2586A4BAB
:106CB0001B689A4207D36B4A614B1B686349CB5CE4
:106CC0009B0001219950594A5D4B1868624B196825
:106CD000A824640003199B00995098E0584B1A6847
:106CE000594B9200D2585C4B1A60544A544B1B6863
:106CF000023B5133FF339B009A58584B1A60504B5C
:106D00001A68544B9200D358002B33D14C4B1B685C
:106D10004E4AD35C1A1C4A4B19684D4B8900CB581C
:106D2000101C191C03220123FFF756FB444B1A6861
:106D3000484B92000121D150404B0122DA643F4A76
:106D4000474BD258444B1B689A4207D9454A3C4BA3
:106D50001B683E49CB5C9B0001219950374A384B58
:106D60001B68981E3C4B1968A824640003199B00FB
:106D700099504CE0314B0122DA64304A384BD258FA
:106D8000364B1B68101C191CFFF708FC031C002B5A
:106D900014D02A4A324BD2582F4B1B68101C191C96
:106DA000FFF7FCFB031C002B08D0C046234A2C4BEA
:106DB000D2582A4B1B689A4208D300E0DAE71F4AF0
:106DC000274BD258244B1B689A420DD31B4A244BA5
:106DD000D258224B1B689A420ED2184A204BD258E6
:106DE0001D4B1B689A4207D31E4A154B1B68174957
:106DF000CB5C9B0001219950104A114B1B68981ED7
:106E0000154B1968A824640003199B0099500C4B7A
:106E10001B685A1C0A4B1A60094B1A68064B1B6800
:106E20009A4200D274E6BD4698BDC04600A000401C
:106E30007C24002068240020A8240020009000402A
:106E4000AC240020A02400206C240020A4240020D6
:106E50008024002090240020B0240020B4240020AE
:106E60004C0500000060004080B500AF024B034AB3
:106E70001A60BD4680BDC046082000200024F400F2
:106E800080B500AF00F01EF8031C002B06D00A4BA3
:106E90000A4A1A600A4B802212021A6000F052F865
:106EA000031C002B05D08023DA05C123DB00012160
:106EB000D150BD4680BDC04604050040DFFF07C07D
:106EC000186C004080B500AF1A4B1A68FF231340BE
:106ED000012B2AD1184B1A680F23134025D1174BC9
:106EE0001A68F023134006D1154B1A68F02313409B
:106EF00001D101231AE0114B1A68F0231340102B23
:106F000006D10F4B1A68F023134001D101230DE085
:106F10000A4B1A68F0231340302B06D1084B1A682D
:106F2000F023134001D1012300E00023181CBD46CB
:106F300080BDC046E00F00F0E40F00F0E80F00F065
:106F4000EC0F00F080B500AF0D4B1A68FF23134023
:106F5000012B11D10B4B1A680F2313400CD10A4B94
:106F60001A68F0231340402B06D1084B1A68F0230F
:106F7000134001D1012300E00023181CBD4680BD51
:106F8000E00F00F0E40F00F0E80F00F0EC0F00F06D
:106F900003210A4802680A430260094802680A435A
:106FA00002600849084A094B9B1A03DD043BC85894
:106FB000D050FBDC064880470648004724050040C7
:106FC0005405004028750100002000204C240020BA
:106FD000816E010021610100FEE7FEE7FEE7FEE7AA
:106FE000FEE7FEE7002934D00123002210B48842D6
:106FF0002CD301242407A14204D2814202D20901E8
:107000001B01F8E7E400A14204D2814202D2490008
:107010005B00F8E7884201D3401A1A434C08A042AB
:1070200002D3001B5C0822438C08A04202D3001B41
:107030009C082243CC08A04202D3001BDC08224358
:10704000002803D01B0901D00909E3E7101C10BC7C
:107050007047002801D00020C04307B4024802A1B5
:107060004018029003BDC046190000000029F0D06E
:1070700003B5FFF7B9FF0EBC4243891A1847C04653
:107080007047C04610B50021041C00F0DBF8044B2B
:107090001868C36B002B00D09847201C00F0DEF965
:1070A0001875010070B50D4E0D4D0024AD1BAD10CF
:1070B00005D0A300F35801349847A542F9D100F058
:1070C000CFF9084E084D0024AD1BAD1005D0A3002C
:1070D000F35801349847A542F9D170BD3C240020F3
:1070E0003C2400203C24002044240020F0B50F2A3A
:1070F00035D9031C0B439C0735D1161C103E3609AD
:107100003501451910350C1C031C27681F60676882
:107110005F60A7689F60E7681034DF601033AB42A0
:10712000F3D1731C1B01C518C9180F231340032B7F
:107130001BD91C1FA4080134A4000023CE58EE5014
:107140000433A342FAD1ED18C91803231A4005D01D
:107150000023CC5CEC5401339342FAD1F0BD051C02
:10716000002AF5D1FAE7051CF2E71A1CF8E7C04639
:10717000F0B54F464646C0B483B0830752D0541E84
:10718000002A4AD0CEB2031C032503E0621E002C65
:1071900043D0141C01335A1E16702B42F6D1032C17
:1071A00033D9FF250D402A0215432A0415430F2C1D
:1071B0001AD9271C103F3F09B9463F01B84610278E
:1071C000FF18BC4646461A1C66441560556095601B
:1071D000D5601032B242F8D14F4601373F010F223D
:1071E000DB191440032C10D9271F1E1DBF08019660
:1071F000BE00B446019E1A1C664420C2B242FCD1B5
:107200000137BF000322DB191440002C05D0C9B29E
:107210001C1919700133A342FBD103B00CBC90467A
:107220009946F0BD031C141CB9E7C04608B5034BD2
:10723000002B02D0024800F091F808BD00000000C9
:107240006D730100F0B55F4656464D464446F0B4B6
:10725000404B85B01B68029001934933FF33039381
:107260000F1C0198A421490042589046002A4AD098
:107270000398814641464E68741E41D44546A3009A
:107280008835ED18C620C42301365B004000B600E7
:107290009B4682464644C344C24408E02B1C8033CC
:1072A0001B68BB4205D0043D043E013C28D3002F9F
:1072B000F4D141464A683368013AA2422CD00022F8
:1072C0003260002BEFD040465946406801220968E1
:1072D000A240009011421DD05046006810421DD1BE
:1072E00002982968984741464968009A9142B8D166
:1072F0004A4612684245B4D1043D043E013CD6D210
:10730000154A002A0DD105B03CBC90469946A246CC
:10731000AB46F0BD9847E6E74C60D2E7286898474F
:10732000E1E743465B684046002B0DD10368002B24
:107330000ED049460B6000E000BF4B461A689046ED
:107340004146002996D1DEE70368C1469846F7E733
:107350000023FAE7187501000000000008B5011CC1
:1073600000220020002300F019F808BD38B5094BB1
:10737000094DED1AAD1009D0013DAC00E41800E054
:10738000013D23689847043C002DF9D100F06EF8C8
:1073900038BDC0464424002048240020F0B54F46A4
:1073A0004646C0B498462B4BA4251B686D005C591B
:1073B00083B0061C0F1C91460193002C44D06568D5
:1073C0001F2D1ADD244B002B02D1012040421CE06E
:1073D000C820400000E000BF041EF6D00025456034
:1073E000A42301985B00C05801992060CC50C423AD
:1073F0005B00E550C6235B00E550002E0AD16B1CF4
:107400000235AD00636000202F5103B00CBC9046E4
:107410009946F0BDAB00E318882248469850C42036
:107420004000221810680121A940084310608422FE
:10743000520040469850022EE1D1C6225200A318B5
:10744000186801431960DAE71C1C4D34FF345C51A5
:10745000B5E7C0461875010000000000FEE7C04611
:10746000F8B5C046F8BC08BC9E467047F8B5C046A3
:10747000F8BC08BC9E467047000001020406090CD7
:107480001014181D23282E353B424A51586068704D
:107490007880889098A0A8AFB6BEC5CBD2D8DDE3DF
:1074A000E8ECF0F4F7FAFCFEFFFFFFFFFFFEFCFA4A
:1074B000F7F4F0ECE8E3DDD8D2CBC5BEB6AFA8A0B8
:1074C000989088807870686058514A423B352E28E1
:1074D000231D1814100C0906040201000208090BF0
:1074E0000C0001020304050607020300010000006E
:1074F0005028140A05020101010100008066010004
:1075000092660100A4660100B8660100CA66010027
:10751000DC66010043000000102000200000000095
:0875200000ECFF7F01000000F8
:10752800000000000A0000000024F4000000000031
:1075380000000000FC22002064230020CC2300204F
:107548000000000000000000000000000000000033
:107558000000000000000000000000000000000023
:107568000000000014750100000000000000000089
:107578000000000000000000000000000000000003
:1075880000000000000000000000000000000000F3
:1075980000000000000000000000000000000000E3
:1075A80000000000000000000000000000000000D3
:1075B80000000000000000000000000000000000C3
:1075C80000000000000000000000000000000000B3
:1075D80000000000000000000100000000000000A2
:1075E8000E33CDAB34126DE6ECDE05000B00000067
:1075F8000000000000000000000000000000000083
:107608000000000000000000000000000000000072
:107618000000000000000000000000000000000062
:107628000000000000000000000000000000000052
:107958000000000000000000102000202D7201002F
:0C796800E9600100C160010000000000A7
:0400000310006F91E9
:00000001FF
