:020000021000EC
:106000000040002041B9010089B901008BB90100AD
:106010000000000000000000000000000000000080
:106020000000000000000000000000008DB9010029
:1060300000000000000000008FB9010091B90100CC
:1060400093B9010093B9010093B9010093B901001C
:1060500093B901000000000001A70100D165010013
:1060600093B9010093B901008DB4010093B9010007
:1060700093B9010093B9010093B9010093B90100EC
:1060800093B90100E9A0010093B9010093B901009F
:1060900035A1010093B90100D17C010093B9010041
:1060A00093B9010093B90100000000000000000056
:1060B00000000000000000000000000000000000E0
:1060C00010B5064C2378002B07D1054B002B02D0CE
:1060D000044800E000BF0123237010BD50240020BD
:1060E000000000005CD4010008B5084B002B03D071
:1060F0000748084900E000BF07480368002B03D0A9
:10610000064B002B00D0984708BDC0460000000099
:106110005CD40100542400204C2400200000000026
:10612000164B002B00D1144B9D46402292029A1A26
:10613000924600218B460F461348144A121A06F065
:10614000E1FD0F4B002B00D098470E4B002B00D0E9
:1061500098470020002104000D000D48002802D0BF
:106160000C4806F0BFFF06F067FD2000290000F094
:10617000B9FE06F051FDC0460000080000400020B6
:10618000000000000000000050240020482B0020E8
:10619000E5D00100F5D0010080B500AFBFF34F8F0F
:1061A000024B034ADA60BFF34F8FFEE700ED00E0D9
:1061B0000400FA0570DF7047181CC04671DF704795
:1061C000181CC04672DF7047181CC04673DF70474A
:1061D000181CC04674DF7047181CC04675DF704736
:1061E000181CC04676DF7047181CC04677DF704722
:1061F000181CC04678DF7047181CC04679DF70470E
:10620000181CC0467ADF7047181CC0467BDF7047F9
:10621000181CC0467CDF7047181CC0467DDF7047E5
:10622000181CC0467EDF7047181CC0467FDF7047D1
:10623000181CC04680DF7047181CC04681DF7047BD
:10624000181CC04682DF7047181CC04683DF7047A9
:10625000181CC04684DF7047181CC046B0DF70476A
:10626000181CC046B1DF7047181CC046B2DF70472B
:10627000181CC04690DF7047181CC04691DF70475D
:10628000181CC04692DF7047181CC04693DF704749
:10629000181CC04694DF7047181CC04695DF704735
:1062A000181CC04696DF7047181CC04697DF704721
:1062B000181CC04698DF7047181CC046A0DF704706
:1062C000181CC046A1DF7047181CC046A2DF7047EB
:1062D000181CC046A3DF7047181CC046A4DF7047D7
:1062E000181CC046A5DF7047181CC046A6DF7047C3
:1062F000181CC046A7DF7047181CC046A8DF7047AF
:10630000181CC046A9DF7047181CC046AADF70479A
:10631000181CC04660DF7047181CC04661DF70471C
:10632000181CC04662DF7047181CC04663DF704708
:10633000181CC04664DF7047181CC04665DF7047F4
:10634000181CC04666DF7047181CC04667DF7047E0
:10635000181CC04668DF7047181CC04669DF7047CC
:10636000181CC04623DF7047181CC04624DF704746
:10637000181CC04625DF7047181CC04626DF704732
:10638000181CC04627DF7047181CC04628DF70471E
:10639000181CC04629DF7047181CC0462ADF70470A
:1063A000181CC0462BDF7047181CC0462CDF7047F6
:1063B000181CC0462DDF7047181CC0462EDF7047E2
:1063C000181CC0462FDF7047181CC04630DF7047CE
:1063D000181CC04631DF7047181CC04632DF7047BA
:1063E000181CC04635DF7047181CC04636DF7047A2
:1063F000181CC04633DF7047181CC04634DF704796
:10640000181CC04637DF7047181CC04638DF70477D
:10641000181CC04639DF7047181CC0463ADF704769
:10642000181CC0463BDF7047181CC0463CDF704755
:10643000181CC0463DDF7047181CC0463EDF704741
:10644000181CC0463FDF7047181CC04641DF70472C
:10645000181CC04642DF7047181CC04643DF704717
:10646000181CC04640DF7047181CC04644DF704708
:10647000181CC04645DF7047181CC04646DF7047F1
:10648000181CC04647DF7047181CC04648DF7047DD
:10649000181CC04649DF7047181CC0464ADF7047C9
:1064A000181CC0464BDF7047181CC0464CDF7047B5
:1064B000181CC0464DDF7047181CC04651DF70479E
:1064C000181CC04652DF7047181CC04621DF7047B9
:1064D000181CC04620DF7047181CC04622DF7047DA
:1064E000181CC0464EDF7047181CC0464FDF70476F
:1064F000181CC04650DF7047181CC04610DF70479C
:10650000181CC04611DF7047181CC04612DF7047C8
:10651000181CC04613DF7047181CC04680B584B0F5
:1065200000AF78600023FB60FFF790FF04E03B1CA6
:106530000C33181CFFF792FFFB68002BF7D0034BBE
:1065400001221A60BD4604B080BDC0460070004004
:1065500080B582B000AF0C4B1A680C4B101C191C94
:10656000002203F01DFF031C7B607B683B603B68DF
:10657000002B06D03A68064B101C83211A1C00F031
:10658000C3F8BD4602B080BD902400208F020000F9
:1065900044D2010080B500AF0B4AC1239B0001210A
:1065A000D15007200321FFF7FDFE0720FFF7E6FE8D
:1065B000054A064B8121C900D150034AA023DB00C4
:1065C0000121D150BD4680BD00700040040500008F
:1065D00080B582B000AF3F4A80235B000021D150DC
:1065E0003C4AA123DB00D358DAB23B4B1A703A4B3A
:1065F0001B784A2B23D8394B1B7801225340DBB23E
:10660000002B1BD0354B01221A70354A354B101C1C
:10661000191C072201F032F8031C7B607B68082BF1
:106620000CD07B683B603B68002B07D03A682E4B50
:10663000101CA7211A1C00F067F807E006E0274BA2
:106640001B78002B02D0254B00221A70274B1B7899
:10665000002B1AD0264B1B78264AD35C0020191C2D
:1066600004F078FE224B1A78234B1B789A4206D20C
:106670001F4B1B780133DAB21D4B1A7005E01C4B1F
:1066800000221A70194B00221A701C4B1B78002B29
:1066900018D01B4B1B781B4AD35C0120191C04F03B
:1066A00059FE174B1B780D2B06D8154B1B78013361
:1066B000DAB2134B1A7005E0114B00221A700F4B1F
:1066C00000221A70034B01225A60FFF7C3FEBD4639
:1066D00002B080BD00700040722A0020702A0020A5
:1066E000742400204CD2010044D20100742A0020FE
:1066F000682A002000D20100712A0020732A00209D
:106700006A2A002034D2010080B584B000AFF8605E
:10671000B9607A60FFF740FDBD4604B080BDC04659
:1067200080B582B000AF021C3960BB1D1A80BB1D52
:106730001A8805493B68081C111C1A1CFFF7E4FF66
:10674000BD4602B080BDC046EFBEADDE80B586B0AE
:1067500002AF194B0022009200200421052203F011
:10676000EFFC031CFB60FB68BB60BB68002B09D01F
:10677000B96802231A1CFF32104B081C111C1A1C8A
:10678000FFF7C2FF0E4A0F4B101C01211A1C03F029
:106790008FFD031C7B607B683B603B68002B08D04F
:1067A000396883235A00054B081C111C1A1CFFF77B
:1067B000ABFFBD4604B080BD9424002044D201004C
:1067C000902400201D65010080B586B000AF3B1C01
:1067D0001A780F218A4301210A431A703B1C197849
:1067E0000F220A4010210A431A703A1C1F4B101C3A
:1067F000191C0A22FFF70EFD031C7B617B693B61BC
:106800003B69002B08D039698D235A00184B081CAE
:10681000111C1A1CFFF778FF3B1D181C00210822D1
:1068200006F070FA3B1D10221A803B1D3C225A8054
:106830003B1D00229A803B1DC8225200DA803B1D7E
:10684000181CFFF7DFFC031C7B617B69FB60FB68A6
:10685000002B08D0F96892235A00054B081C111C24
:106860001A1CFFF751FFBD4606B080BD54D201008F
:1068700044D2010080B5A0B000AFFB1D05221A7004
:106880003B1C01221A80234B1A783B1C9A703B1C3C
:106890004033181C0021382206F034FA3B1C4033E8
:1068A00002221A703B1C403300229A703B1C40337A
:1068B00001229A803B1C4033FA1D9A603B1C08332E
:1068C000181C0021382206F01DFA3B1C0833012257
:1068D0001A833B1C08333A1CDA613A1C40323B1CD9
:1068E0000833101C191C01F0DBFF031CFB67FB6F56
:1068F000BB67BB6F002B09D0B96F42231A1CFF3254
:10690000054B081C111C1A1CFFF7FEFEBD4620B0EB
:1069100080BDC0467424002044D201000000000065
:10692000F0B587B000AFF860B960BB1D1A80BB68D6
:106930001B78622B13D1484B1A78484B1A70464B80
:1069400031221A70464B00221A60464B00221A6010
:10695000454B01221A70454B01221A7072E0BB6848
:10696000181C06F04DF9031C1A1C3D4B1A603D4BD8
:106970001B68181C05F0F8FF051C0E1C384B1B6823
:10698000181C05F055F9031C181C05F0EDFF031C3D
:106990000C1C181C211C2F4B2D4A05F0BDFC031CA0
:1069A0000C1C281C311C1A1C231C05F091F9031C1B
:1069B0000C1C181C211C06F029F8021C294B1A601B
:1069C000254B00221A7017E0234B1B78284AD35C12
:1069D000181C05F0D1F8021C224B1B68101C191C56
:1069E00004F0F4FF031C002B00D009E01A4B1B78C5
:1069F0000133DAB2184B1A70174B1B78302BE3D9DE
:106A0000194B01221A70194B01221A701949BA68E0
:106A1000BB1D1B88081C111C1A1C00F02FFE031C38
:106A20007B617B69082B0DD07B693B613B69002B47
:106A300008D03969B5235A000F4B081C111C1A1CC9
:106A4000FFF762FEBD4607B0F0BDC046C046C04677
:106A50000000000000002440712A0020682A002065
:106A6000642A00206C2A0020742A0020732A002047
:106A700000D201007424002044D20100C046C04668
:106A800080B584B000AF3B1D181C0021042206F025
:106A900039F90E4B7B600E4A3B1D101C191C00F08F
:106AA00081FD031CFB60FB68BB60BB68002B09D049
:106AB000B9687C231A1CFF32064B081C111C1A1CD7
:106AC000FFF722FEBD4604B080BDC046216901002B
:106AD0007424002044D2010080B500AF104B1E2268
:106AE0001A800F4B9A7801210A439A700C4B9A78BE
:106AF00002218A439A700A4B9A781C218A430C21FE
:106B00000A439A70064B9A7820218A439A70044B64
:106B10000722DA70024B10221A71BD4680BDC046B2
:106B20006C24002080B584B000AF78607B681B784F
:106B3000002B16D10C4B1B88181C3B21FFF752FB76
:106B4000031CFB60FB68BB60BB68002B09D0B96805
:106B5000A0231A1CFF32054B081C111C1A1CFFF73E
:106B6000D3FDBD4604B080BD0420002044D2010006
:106B700080B582B000AF78607968D5235A00044BA5
:106B8000081C111C1A1CFFF7BFFDBD4602B080BDDA
:106B900044D2010080B58AB000AF3B1D181C002113
:106BA0001C2206F0AFF83B1D00221A603B1DA022FC
:106BB00092025A603B1DF02212039A603B1D032291
:106BC0001A733B1D0022DA813B1D00221A743B1D03
:106BD0000E4A5A613B1D0E4A9A613B1D181C02F079
:106BE000BDF8031C7B627B6A3B623B6A002B09D0C9
:106BF000396AC2231A1CFF32064B081C111C1A1CCE
:106C0000FFF782FDBD460AB080BDC046256B01007E
:106C1000716B010044D2010080B588B000AF3B1D0C
:106C2000181C0021142206F06DF83B1D00221A707A
:106C30003B1D00225A603B1D00221A723B1D402260
:106C40001A823B1DB4225A823B1D181CFFF7BEFA64
:106C5000031CFB61FB69BB61BB69002B08D0B969F0
:106C6000EB235A00044B081C111C1A1CFFF74CFDA7
:106C7000BD4608B080BDC04644D2010080B588B092
:106C800000AF78607B681B88132B18D004DC102BB6
:106C900009D0112B0CD08AE0172B44D0522B28D0CE
:106CA000142B4BD083E07B689A88424B1A807EE09D
:106CB000404B012252421A80FFF7AEFF77E03D4B76
:106CC0001A883D4B101C00211A1CFFF7AFFA031C59
:106CD000FB61FB69BB61BB69002B09D0B969FA2371
:106CE0005A00364B081C111C1A1CFFF70DFD5EE004
:106CF0005DE0304B1B88181C00210022FFF702FBCF
:106D0000031CFB61FB697B617B69002B0AD07969FD
:106D1000FA231A1CFF32294B081C111C1A1CFFF7FE
:106D2000F3FC44E043E026497A680623D218322374
:106D3000081C111C1A1C05F0A3FF38E0214B3B6115
:106D40003B691A887B68DB899A4218D1194B1A88EB
:106D50003B69101C191C0022FFF770FA031CFB6131
:106D6000FB69FB60FB68002B08D0F968164A134BDF
:106D7000081C111C1A1CFFF7C7FC17E016E00D4B8E
:106D80001B88181C00210022FFF758FA031CFB6126
:106D9000FB69BB60BB68002B08D0B9680B4A074B86
:106DA000081C111C1A1CFFF7AFFCFFE7C046BD46CC
:106DB00008B080BD042000206C24002044D20100D3
:106DC000FC26002002270020050200000B02000024
:106DD00080B582B000AF78607B68181C02F01CF9A7
:106DE000064A7B68101C191C00F0AEFB7B68181C5F
:106DF000FFF744FFBD4602B080BDC04674240020AA
:106E000080B586B000AF254B0D20191C5022002301
:106E100000F0DCFE031C7B617B693B613B69002B5E
:106E200008D039698E239A001D4B081C111C1A1CAE
:106E3000FFF76AFC3B1C181C0021012205F062FFD1
:106E40003B1C1A7801218A431A703B1C181CFFF75F
:106E500061FA031CFB60FB68BB60BB68002B07D0BA
:106E6000B968104A0E4B081C111C1A1CFFF74CFC89
:106E70000D4B181C00F004FF031CFB60FB687B60DB
:106E80007B68002B07D07968084A054B081C111C49
:106E90001A1CFFF739FCBD4606B080BD3027002024
:106EA00044D201003F020000D16D01004302000006
:106EB00080B582B000AFFFF7D5FA031C7B607B681A
:106EC0003B603B68002B08D0396893239A00044B41
:106ED000081C111C1A1CFFF717FCBD4602B080BD30
:106EE00044D2010080B586B000AF2B4B00221A605F
:106EF0002A4B00221A702A4B00221A60294B0022CA
:106F00001A70294B00221A70284B00221A70284B45
:106F100000221A70274B00221A70274B00221A7089
:106F2000264B00221A70FFF711FCFFF769FFFFF7ED
:106F30004BFCFFF7A5FDFFF79DFCFFF72BFEFFF7CE
:106F4000CBFDFFF727FB3A1D1D4B111C1A1C12230A
:106F5000081C111C1A1C05F093FE3B1D01225A74DB
:106F60003B1D02221A703B1D08225A703B1D09224C
:106F70009A703B1D181C04F043F80020002104F017
:106F8000E9F90120002104F0E5F9FFF7E1FAFFF744
:106F900043FEFFF78DFFFCE7642A0020722A0020E1
:106FA0006C2A0020712A0020682A0020692A00200B
:106FB000702A0020742A00206A2A0020732A0020E8
:106FC00060D2010070DF7047181CC04671DF704747
:106FD000181CC04672DF7047181CC04673DF70472C
:106FE000181CC04674DF7047181CC04675DF704718
:106FF000181CC04676DF7047181CC04677DF704704
:10700000181CC04678DF7047181CC04679DF7047EF
:10701000181CC0467ADF7047181CC0467BDF7047DB
:10702000181CC0467CDF7047181CC0467DDF7047C7
:10703000181CC0467EDF7047181CC0467FDF7047B3
:10704000181CC04680DF7047181CC04681DF70479F
:10705000181CC04682DF7047181CC04683DF70478B
:10706000181CC04684DF7047181CC046B0DF70474C
:10707000181CC046B1DF7047181CC046B2DF70470D
:10708000181CC04690DF7047181CC04691DF70473F
:10709000181CC04692DF7047181CC04693DF70472B
:1070A000181CC04694DF7047181CC04695DF704717
:1070B000181CC04696DF7047181CC04697DF704703
:1070C000181CC04698DF7047181CC046A0DF7047E8
:1070D000181CC046A1DF7047181CC046A2DF7047CD
:1070E000181CC046A3DF7047181CC046A4DF7047B9
:1070F000181CC046A5DF7047181CC046A6DF7047A5
:10710000181CC046A7DF7047181CC046A8DF704790
:10711000181CC046A9DF7047181CC046AADF70477C
:10712000181CC04660DF7047181CC04661DF7047FE
:10713000181CC04662DF7047181CC04663DF7047EA
:10714000181CC04664DF7047181CC04665DF7047D6
:10715000181CC04666DF7047181CC04667DF7047C2
:10716000181CC04668DF7047181CC04669DF7047AE
:10717000181CC04680B582B000AF78607B681B7871
:107180001A1C7B6801331B781B029BB213439BB212
:107190009BB2181CBD4602B080BDC04690B585B0FC
:1071A00000AF78603C1C0E347B68181CFFF7E2FFD0
:1071B000031C23803B1C0E331A88012313405A1EE4
:1071C0009341DBB2181CBD4605B090BD80B582B0BE
:1071D00000AF786039603B689A887B689A82BD46C8
:1071E00002B080BD80B582B000AF786039607B6846
:1071F000012252429A82BD4602B080BD80B584B061
:1072000000AF786039603B680633FB60FB681A8822
:107210007B681B8A9A4213D1FB681B8B022B0FD110
:10722000FB681A33181CFFF7B9FF031C002B03D0AF
:107230007B6801229A7516E07B6800229A7512E03D
:10724000FB681A887B689B889A420CD17B689B6993
:10725000002B08D07B689B69FA68111C1A31FA6808
:10726000128B78689847BD4604B080BD80B592B057
:1072700000AF786039603B1C2833181C00210322C2
:1072800005F040FD3B1C28331A780F218A43012169
:107290000A431A703B1C283319780F220A40102128
:1072A0000A431A703B1C28335A780F218A43012164
:1072B0000A435A703B1C283359780F220A40102188
:1072C0000A435A703B1C28339A7806218A430221CC
:1072D0000A439A703B1C2C33181C00211C2205F019
:1072E00011FD3B1C2C331A7810210A431A703B1CE9
:1072F0002C3300225A603B1C2C330022DA603B1CEA
:107300002C3300221A613B1C2C333A1C28325A6160
:107310003B1C2C3300229A617B681A783B1C10338B
:107320009A703B1C103303221A803B1C0C33181C30
:107330000021032205F0E6FC3B1C0C331A780F21D8
:107340008A4301210A431A703B1C0C3319780F221F
:107350000A4010210A431A703B1C0C335A780F2143
:107360008A4301210A435A703B1C0C3359780F227F
:107370000A4010210A435A703B1C0C339A780621AC
:107380008A4302210A439A703B1C0C339A780821E5
:107390008A439A703B1C0C339A7810218A439A7066
:1073A0003B1C0C339A7801210A439A703B1C14331E
:1073B000181C0021142205F0A5FC3B1C14333A1CB8
:1073C00010321A603B1C14333A1C0C325A603B1CBE
:1073D000143301221A813B1C143300225A813B1CB6
:1073E000143314229A817B6858887B680C33391CCB
:1073F0002C313A1C1432FFF771FE031C181CBD46D9
:1074000012B080BD80B590B000AF786039603B1C91
:107410002433181C00211C2205F074FC3B1C24336F
:107420001A7808210A431A703B1C24331A78042165
:107430000A431A703B1C243300225A603B1C24333D
:107440000022DA603B1C243300221A613B1C2433E7
:1074500000225A613B1C243300229A617B681A780F
:107460003B1C0C339A703B1C0C3302221A803B1CD1
:107470000833181C0021032205F044FC3B1C083390
:107480001A780F218A4301210A431A703B1C0833E2
:1074900019780F220A4010210A431A703B1C083346
:1074A0005A780F218A4301210A435A703B1C083342
:1074B00059780F220A4010210A435A703B1C0833A6
:1074C0009A7806218A4302210A439A703B1C0833AA
:1074D0009A7808218A439A703B1C08339A781021C5
:1074E0008A439A703B1C08339A7801210A439A70A8
:1074F0003B1C1033181C0021142205F003FC3B1C1C
:1075000010333A1C0C321A603B1C10333A1C083200
:107510005A603B1C103301221A813B1C103300229D
:107520005A813B1C103314229A817B6858887B68EF
:107530000433391C24313A1C1032FFF7CFFD031CF1
:10754000181CBD4610B080BD80B582B000AF786019
:1075500039607B68002B02D03B68002B00D11DE016
:107560003B681B88112B0BD0502B10D0102B00D058
:1075700014E07A683B68101C191CFFF727FE0DE029
:107580007A683B68101C191CFFF72CFE06E07A682D
:107590003B68101C191CFFF731FEC046BD4602B007
:1075A00080BDC04680B588B000AF786039603A1CB5
:1075B0000832314B111C1A1C1023081C111C1A1CF8
:1075C00005F05EFB7B68002B02D03B68002B01D1ED
:1075D0000E234CE07B68012252429A823B681A6873
:1075E0007B689A617B6800229A757B683A1C083236
:1075F000101C191CFFF7A2FD031CFB61FB69002B8B
:1076000001D0FB6933E07B681A783B1C18339A7011
:107610003B1C183301221A807B6802333A1C183253
:107620000120111C1A1CFFF751FD031CFB61FB69B3
:10763000002B01D0FB691AE07A683B68101C191C0A
:10764000FFF714FE031CFB61FB69002B01D0FB69F3
:107650000DE07A683B68101C191CFFF7D3FE031C71
:10766000FB61FB69002B01D0FB6900E00023181CC3
:10767000BD4608B080BDC04674D2010080B588B058
:1076800000AFF860B960BB1D1A80FB68002B01D108
:107690000E2334E0FB689A8A1B4B9A4206D0FB68A3
:1076A0009B7D01225340DBB2002B01D0082326E052
:1076B000BB1D1B88142B01D9072320E03B1C103372
:1076C000181C0021102205F01DFBFB689A893B1C49
:1076D00010331A803B1C1033BA68DA603B1C10333D
:1076E000BA1D9A603B1C103301229A70FB689A8A7B
:1076F0003B1C1033101C191CFFF700FD031C181C49
:10770000BD4608B080BDC046FFFF000023DF7047C4
:10771000181CC04624DF7047181CC04625DF704780
:10772000181CC04626DF7047181CC04627DF70476C
:10773000181CC04628DF7047181CC04629DF704758
:10774000181CC0462ADF7047181CC0462BDF704744
:10775000181CC0462CDF7047181CC0462DDF704730
:10776000181CC0462EDF7047181CC0462FDF70471C
:10777000181CC04630DF7047181CC04631DF704708
:10778000181CC04632DF7047181CC04635DF7047F2
:10779000181CC04636DF7047181CC04633DF7047E0
:1077A000181CC04634DF7047181CC04637DF7047CE
:1077B000181CC04638DF7047181CC04639DF7047B8
:1077C000181CC0463ADF7047181CC0463BDF7047A4
:1077D000181CC0463CDF7047181CC0463DDF704790
:1077E000181CC0463EDF7047181CC0463FDF70477C
:1077F000181CC04641DF7047181CC04642DF704766
:10780000181CC04643DF7047181CC04640DF704755
:10781000181CC04644DF7047181CC04645DF70473F
:10782000181CC04646DF7047181CC04647DF70472B
:10783000181CC04648DF7047181CC04649DF704717
:10784000181CC0464ADF7047181CC0464BDF704703
:10785000181CC0464CDF7047181CC0464DDF7047EF
:10786000181CC04651DF7047181CC04652DF7047D5
:10787000181CC04621DF7047181CC04620DF704727
:10788000181CC04622DF7047181CC0464EDF7047E8
:10789000181CC0464FDF7047181CC04650DF7047A9
:1078A000181CC04610DF7047181CC04611DF704717
:1078B000181CC04612DF7047181CC04613DF704703
:1078C000181CC04680B582B000AF78607A68032388
:1078D00013405A425341DBB2181CBD4602B080BD72
:1078E00070DF7047181CC04671DF7047181CC04617
:1078F00072DF7047181CC04673DF7047181CC04603
:1079000074DF7047181CC04675DF7047181CC046EE
:1079100076DF7047181CC04677DF7047181CC046DA
:1079200078DF7047181CC04679DF7047181CC046C6
:107930007ADF7047181CC0467BDF7047181CC046B2
:107940007CDF7047181CC0467DDF7047181CC0469E
:107950007EDF7047181CC0467FDF7047181CC0468A
:1079600080DF7047181CC04681DF7047181CC04676
:1079700082DF7047181CC04683DF7047181CC04662
:1079800084DF7047181CC046B0DF7047181CC04623
:10799000B1DF7047181CC046B2DF7047181CC046E4
:1079A00090DF7047181CC04691DF7047181CC04616
:1079B00092DF7047181CC04693DF7047181CC04602
:1079C00094DF7047181CC04695DF7047181CC046EE
:1079D00096DF7047181CC04697DF7047181CC046DA
:1079E00098DF7047181CC046A0DF7047181CC046BF
:1079F000A1DF7047181CC046A2DF7047181CC046A4
:107A0000A3DF7047181CC046A4DF7047181CC0468F
:107A1000A5DF7047181CC046A6DF7047181CC0467B
:107A2000A7DF7047181CC046A8DF7047181CC04667
:107A3000A9DF7047181CC046AADF7047181CC04653
:107A400060DF7047181CC04661DF7047181CC046D5
:107A500062DF7047181CC04663DF7047181CC046C1
:107A600064DF7047181CC04665DF7047181CC046AD
:107A700066DF7047181CC04667DF7047181CC04699
:107A800068DF7047181CC04669DF7047181CC04685
:107A900080B584B000AFF8607A603B1C0A330A1CE2
:107AA0001A803B1C0A331A887B68101C191CFEF7CD
:107AB00037FEBD4604B080BD80B584B000AF3D4BFD
:107AC0001B78DBB201225340DBB2002B00D06DE00B
:107AD000394B1A683B1C0F3351424A411A70374BDD
:107AE0001A683B1C0E3351424A411A703B1C0F333B
:107AF0001B7801225340DBB2002B1DD03B1D181C0C
:107B0000FFF7B0FE031CBB60BB68052B04D13B1C18
:107B10000F3301221A700FE0BB68002B07D0BA6840
:107B2000274B101C69211A1CFEF7EEFD04E0224BC6
:107B30001B687A68101C98473B1C0E331B78012287
:107B40005340DBB2002B25D01E4B1A88BB1C1A8079
:107B50001D4B1A68BB1C101C191CFFF775FF031C7A
:107B6000BB60BB68052B04D13B1C0E3301221A708D
:107B700010E0BB68002B07D0BA68114B101C8021A5
:107B80001A1CFEF7C1FD05E00C4B1A680E4B1B6872
:107B9000181C90473B1C0F331B78002B05D03B1C57
:107BA0000E331B78002B00D000E09FE7BD4604B0E9
:107BB00080BDC0468A270020902700208C27002007
:107BC00084D20100882700208427002080B586B059
:107BD00000AFF860B9603B60BB1D1A80BB68002B2A
:107BE00001D1072329E0BB68181CFFF76BFE031CBB
:107BF00001225340DBB2002B01D007231DE0114BC3
:107C0000BA681A60104BBA1D12881A800F4B3A6876
:107C10001A60FA680E4B101C191CFFF743FE031C78
:107C20007B617B69002B01D07B6906E0094B012257
:107C30001A701620FFF776FD031C181CBD4606B00F
:107C400080BDC04684270020882700208027002090
:107C5000917A01008A27002080B582B000AFFFF73B
:107C600025FE031C7B607B685A1E9341DAB2034BEE
:107C70001A707B68181CBD4602B080BD8A270020A0
:107C800080B582B000AF78607B68002B01D10E23F5
:107C900003E0044B7A681A600023181CBD4602B04A
:107CA00080BDC0468C27002080B582B000AF7860D0
:107CB0007B68002B01D10E2303E0044B7A681A6025
:107CC0000023181CBD4602B080BDC046902700208E
:107CD00080B582B000AF0F4B1B68002B14D00D4B4A
:107CE0001B689847031C7B607B683B603B68002BEC
:107CF00009D0396899235A00074B081C111C1A1C1B
:107D0000FEF702FD02E001E0FFF7D6FEBD4602B03D
:107D100080BDC0468027002084D2010070DF7047FC
:107D2000181CC04671DF7047181CC04672DF7047D0
:107D3000181CC04673DF7047181CC04674DF7047BC
:107D4000181CC04675DF7047181CC04676DF7047A8
:107D5000181CC04677DF7047181CC04678DF704794
:107D6000181CC04679DF7047181CC0467ADF704780
:107D7000181CC0467BDF7047181CC0467CDF70476C
:107D8000181CC0467DDF7047181CC0467EDF704758
:107D9000181CC0467FDF7047181CC04680DF704744
:107DA000181CC04681DF7047181CC04682DF704730
:107DB000181CC04683DF7047181CC04684DF70471C
:107DC000181CC046B0DF7047181CC046B1DF7047B2
:107DD000181CC046B2DF7047181CC04690DF7047C1
:107DE000181CC04691DF7047181CC04692DF7047D0
:107DF000181CC04693DF7047181CC04694DF7047BC
:107E0000181CC04695DF7047181CC04696DF7047A7
:107E1000181CC04697DF7047181CC04698DF704793
:107E2000181CC046A0DF7047181CC046A1DF704771
:107E3000181CC046A2DF7047181CC046A3DF70475D
:107E4000181CC046A4DF7047181CC046A5DF704749
:107E5000181CC046A6DF7047181CC046A7DF704735
:107E6000181CC046A8DF7047181CC046A9DF704721
:107E7000181CC046AADF7047181CC04660DF704758
:107E8000181CC04661DF7047181CC04662DF70478F
:107E9000181CC04663DF7047181CC04664DF70477B
:107EA000181CC04665DF7047181CC04666DF704767
:107EB000181CC04667DF7047181CC04668DF704753
:107EC000181CC04669DF7047181CC04680B582B0D8
:107ED00000AF021C3960BB1D1A80BB1D1B88DAB2C3
:107EE0003B681A703B680133BA1D1288120A92B2BD
:107EF000D2B21A700223181CBD4602B080BDC04623
:107F000080B588B000AFF860B9607A603B1C1C3364
:107F10007A6812781A703B1C1C331B7802331F2BB3
:107F200004DCFB685B7802331F2B01DD0C237DE052
:107F30003B1C1C331B789AB23B1C1E331D218A1A32
:107F40001A803B1C16333A1C1E3212881A803B1CC6
:107F50001C331B780233BA68D2183B1C1633101C32
:107F6000191CFFF70FFF031CBB61BB69002B01D07D
:107F7000BB695BE0FB681B78022B12D13B1C1633FC
:107F80001B883A1C1E3212889A420AD33B1C1D33AE
:107F900009221A703B1C1E333A1C163212881A80B2
:107FA0001AE03B1C1D3308221A70FB685B78002B1B
:107FB0000CD0FB685B783A1C1E3212889A4205D3BB
:107FC000FB685A783B1C1E331A8005E03B1C1E33AD
:107FD0003A1C163212881A803B1C1C331B783A1C40
:107FE0001C32591C1170BA68D3183A1C1E32128800
:107FF000D2B20132D2B21A703B1C1C331B783A1C2D
:108000001C32591C1170BA68D3183A1C1D321278F0
:108010001A707B681A783B1C1E331B88DBB2D3189E
:10802000DBB20233DAB27B681A700023181CBD463B
:1080300008B080BD90B585B000AF786039603B680E
:108040001B7804331F2B01DD0C2332E03B1C0A3369
:10805000181CFFF787FE031CFB60FB68002B01D098
:10806000FB6826E03B681B785A1CD1B23A68117055
:108070007A68D31803221A703B681B785A1CD1B255
:108080003A6811707A68D31819221A703B681C7804
:108090003B1C0A331A883B681B787968CB18101C84
:1080A000191CFFF713FF031CE318DAB23B681A70C0
:1080B0000023181CBD4605B090BDC04680B584B0F5
:1080C00000AFF8607A603B603B1C0B330A1C1A70EF
:1080D000FB685B68002B01D107233AE03B681B7803
:1080E0009A1CFB681B88D3181F2B01DD0C2330E082
:1080F0003B681B785A1CD1B23A6811707A68D31861
:10810000FA681288D2B20132D2B21A703B681B7878
:108110005A1CD1B23A6811707A68D3183A1C0B32E3
:1081200012781A703B681B787A68D118FB685A6815
:10813000FB681B88081C111C1A1C04F0A1FD3B687D
:108140001A78FB681B88DBB2D318DAB23B681A7066
:108150000023181CBD4604B080BDC04680B584B065
:1081600000AFB9607A603B1C0F33021C1A707B6849
:108170001B7803331F2B01DD0C2320E07B681B7869
:108180005A1CD1B27A681170BA68D31802221A70D8
:108190007B681B785A1CD1B27A681170BA68D31800
:1081A0000A221A707B681B785A1CD1B27A68117047
:1081B000BA68D3183A1C0F3212781A700023181CB0
:1081C000BD4604B080BDC04680B58AB000AFF8603F
:1081D0007B603B1C0B3319703B1C0A331A703B1C31
:1081E000233300221A703B1C22333A6B12781A7028
:1081F00000237B627EE0FB685A687B6A9B00D31891
:108200003A1C1432111C1A1C0423081C111C1A1CC1
:1082100004F036FD3A1C14323B1C1A33101C191C96
:108220000022FFF73FFE031CFB61FB69002B01D01E
:10823000FB697BE03B1C1A331B783A1C0A3212782C
:108240009A4254D13B1C23331B78002B01D00023CE
:1082500000E002233A1C1B3213703B6B1B781A1C84
:108260003B1C1A331B78D2183B1C1B331B78D318CA
:108270001F2B01DD0C2359E03B1C23331B7801220B
:108280005340DBB2002B15D03B6B1B780133DAB2C5
:108290003B6B1A703B6B1B785A1CD1B23A6B117056
:1082A0007A68D3183A1C0B3212781A703B1C2333AD
:1082B00001221A703B6B1B787A68D318391C143171
:1082C0003A1C1A32081C111C1A1CFFF7EBFD031C88
:1082D000FB61FB69002B01D0FB6927E03B6B1A783F
:1082E0003B1C1A331B78D318DAB23B6B1A707B6ACB
:1082F00001337B62FB681B881A1C7B6A9A4200DD93
:1083000079E73B1C23331B78002B0ED03B1C223318
:108310001B787A68D3183A6B11783A1C223212789B
:108320008A1AD2B2013AD2B21A700023181CBD4682
:108330000AB080BD80B588B002AFF8607B603B1C9E
:108340000B3319703B1C0A331A70F9683B1C0B3352
:108350001A787B68386A0090081C111C0222FFF70B
:1083600033FF031C7B617B69002B01D07B6913E029
:10837000F9683B1C0A331A787B68386A0090081C3D
:10838000111C1022FFF720FF031C7B617B69002B6F
:1083900001D07B6900E00023181CBD4606B080BDFB
:1083A00080B582B000AF78607B681B88052B0AD946
:1083B0007B681A88C8231B019A4206D97B681A88F1
:1083C000164B9A4201D0072323E07B685B88052B7C
:1083D0000AD97B685A88C8231B019A4206D97B6850
:1083E0005A880E4B9A4201D0072312E07B681A8804
:1083F0000A4B9A420CD07B685A88084B9A4207D0A5
:108400007B681A887B685B889A4201D9072300E061
:108410000023181CBD4602B080BDC046FFFF00000F
:1084200090B587B000AFF860B9607A607B681B7860
:1084300006331F2B01D90C2341E0FB68181CFFF702
:10844000AFFF031C7B617B69002B01D07B6936E0A9
:108450007B681B785A1CD1B27A681170BA68D3183D
:1084600005221A707B681B785A1CD1B27A68117089
:10847000BA68D31812221A707B681C78FB681A88B5
:108480007B681B78B968CB18101C191CFFF71EFD00
:10849000031CE318DAB27B681A707B681C78FB68EF
:1084A0005A887B681B78B968CB18101C191CFFF719
:1084B0000DFD031CE318DAB27B681A700023181C48
:1084C000BD4607B090BDC04690B587B000AFF8601C
:1084D000B9607A60FB689B88DAB23B1C17330232C2
:1084E0001A707B681B789A1C3B1C17331B78D318B7
:1084F0001F2B01DD0C2349E07B681B785A1CD1B28D
:108500007A681170BA68D3183A1C1732127801329F
:10851000D2B21A707B681B785A1CD1B27A6811707B
:10852000BA68D318FF221A707B681C78FB681A8817
:108530007B681B78B968CB18101C191CFFF7C6FCA8
:10854000031CE318DAB27B681A70FB689B88002B67
:108550001BD0FB689B68002B01D1072316E07B68CA
:108560001B78BA68D118FB689A68FB689B88081C5E
:10857000111C1A1C04F084FB7B681A78FB689B882A
:10858000DBB2D318DAB27B681A700023181CBD4620
:1085900007B090BD90B589B000AFF860B9607A605F
:1085A000FB681B6B002B01D107236FE03B1C1F33C3
:1085B00000221A7061E0FB68196B3B1C1F331A78AC
:1085C000131C5B009B189B00CB18BB61BB699B888D
:1085D000DAB23B1C173302321A707B681B785A1CC4
:1085E000D1B27A681170BA68D3183A1C173212786F
:1085F0000132D2B21A707B681B785A1CD1B27A68E9
:108600001170BA68D31816221A707B681C78BB697F
:108610001A887B681B78B968CB18101C191CFFF7E7
:1086200055FC031CE318DAB27B681A70BB699B889F
:10863000002B1BD0BB699B68002B01D1072325E0D1
:108640007B681B78BA68D118BB699A68BB699B883C
:10865000081C111C1A1C04F013FB7B681A78BB69F8
:108660009B88DBB2D318DAB27B681A703B1C1F33CD
:108670001A783B1C1F3301321A70FA683423D35C1A
:108680003A1C1F3212789A4295D30023181CBD461B
:1086900009B090BD80B588B002AFF860B9607A606B
:1086A00000237B617B6800221A70FB681B78002B1B
:1086B0000ED0F968BA687B68081C111C1A1CFFF7F9
:1086C0001FFC031C7B617B69002B01D07B69B8E038
:1086D000FB689B78002B0CD0BA687B68101C191CB7
:1086E000FFF7A8FC031C7B617B69002B01D07B6931
:1086F000A7E0FB689B88002B0ED0FB68191DBA68A9
:108700007B68081C0121FFF7D9FC031C7B617B6996
:10871000002B01D07B6994E0FB68DB68002B11D053
:10872000FB68DB681B7859B2BA687B68081C111CAF
:108730001A1CFFF713FD031C7B617B69002B01D022
:108740007B697EE0FB681B8A002B11D0FB681A1C3A
:108750001032BB6879680091101C02210622FFF7D5
:10876000E9FD031C7B617B69002B01D07B6968E01C
:10877000FB681B8B002B11D0FB681A1C1832BB68DE
:1087800079680091101C03210722FFF7D3FD031C19
:108790007B617B69002B01D07B6952E0FB681B8CFD
:1087A000002B11D0FB681A1C2032BB68796800913D
:1087B000101C14211522FFF7BDFD031C7B617B6992
:1087C000002B01D07B693CE0FB689B6A002B0FD03B
:1087D000FB68996ABA687B68081C111C1A1CFFF7B1
:1087E0001FFE031C7B617B69002B01D07B6928E0A5
:1087F000FB68DB6A002B0FD0FB68D96ABA687B681C
:10880000081C111C1A1CFFF75FFE031C7B617B69AF
:10881000002B01D07B6914E0FA683423D35C002B71
:108820000ED0F968BA687B68081C111C1A1CFFF787
:10883000B1FE031C7B617B69002B01D07B6900E0EA
:108840007B69181CBD4606B080BDC04680B582B0AD
:1088500000AF78607B689B88002B0AD07B689B68A0
:10886000002B06D07B689B681B781A1C04231340DE
:1088700001D1072300E00023181CBD4602B080BDD3
:1088800080B582B000AF78607B689B88002B01D0F8
:10889000072300E00023181CBD4602B080BDC0467F
:1088A00080B596B000AF786039603B1C4B33002236
:1088B0001A703B1C4A3300221A707B68002B1FD0B1
:1088C0007B68181CFFF7C2FF031CFB64FB6C002BCA
:1088D00001D0FB6C46E079683A1C28323B1C4B33D4
:1088E000081C111C1A1CFFF7D5FE031CFB64FB6C53
:1088F000002B01D0FB6C35E03B1C28337B6501E08D
:1089000000237B653B68002B1FD03B68181CFFF7DA
:10891000B7FF031CFB64FB6C002B01D0FB6C21E058
:1089200039683A1C08323B1C4A33081C111C1A1CBB
:10893000FFF7B0FE031CFB64FB6C002B01D0FB6C4B
:1089400010E03B1C08333B6501E000233B653B1C0A
:108950004B3319783B1C4A331B78786D3A6DFFF71F
:10896000E5F9031C181CBD4616B080BD80B584B067
:1089700000AFF860B9607A600B4A7B68101C191C64
:108980007F2204F01DFA084A7F230021D154BB68DE
:108990009AB2064B1A80064BFA681A60034B1B8882
:1089A000034B1B6872B6FEE79427002014280020B2
:1089B0001828002080B500AF6B46181CBD4680BD4E
:1089C00080B586B000AF78600E4B1B687B61FFF707
:1089D000F1FF031C3B617A693B69D31AFB607B683A
:1089E000191C8831FB6880225200934201D98023F0
:1089F0005B003A69081C111C1A1C04F041F9BD46C1
:108A000006B080BD0060010080B584B000AFF860A2
:108A1000B960BB1D1A800F4B01221A800D4BFA68FA
:108A20005A600C4BBA1D12885A800B4ABB68101C46
:108A3000191C7F2204F0C4F9064A87230021D1546F
:108A4000044B181CFFF7BCFF0023181CBD4604B0E4
:108A500080BDC0461C2800202428002070DF7047FD
:108A6000181CC04671DF7047181CC04672DF704783
:108A7000181CC04673DF7047181CC04674DF70476F
:108A8000181CC04675DF7047181CC04676DF70475B
:108A9000181CC04677DF7047181CC04678DF704747
:108AA000181CC04679DF7047181CC0467ADF704733
:108AB000181CC0467BDF7047181CC0467CDF70471F
:108AC000181CC0467DDF7047181CC0467EDF70470B
:108AD000181CC0467FDF7047181CC04680DF7047F7
:108AE000181CC04681DF7047181CC04682DF7047E3
:108AF000181CC04683DF7047181CC04684DF7047CF
:108B0000181CC046B0DF7047181CC046B1DF704764
:108B1000181CC046B2DF7047181CC04690DF704773
:108B2000181CC04691DF7047181CC04692DF704782
:108B3000181CC04693DF7047181CC04694DF70476E
:108B4000181CC04695DF7047181CC04696DF70475A
:108B5000181CC04697DF7047181CC04698DF704746
:108B6000181CC046A0DF7047181CC046A1DF704724
:108B7000181CC046A2DF7047181CC046A3DF704710
:108B8000181CC046A4DF7047181CC046A5DF7047FC
:108B9000181CC046A6DF7047181CC046A7DF7047E8
:108BA000181CC046A8DF7047181CC046A9DF7047D4
:108BB000181CC046AADF7047181CC04660DF70470B
:108BC000181CC04661DF7047181CC04662DF704742
:108BD000181CC04663DF7047181CC04664DF70472E
:108BE000181CC04665DF7047181CC04666DF70471A
:108BF000181CC04667DF7047181CC04668DF704706
:108C0000181CC04669DF7047181CC04680B582B08A
:108C100000AF78607B681B781A1C7B6801331B7877
:108C20001B029BB213439BB29BB2181CBD4602B001
:108C300080BDC04690B585B000AF78603C1C0E3456
:108C40007B68181CFFF7E2FF031C23803B1C0E33DC
:108C50001A88012313405A1E9341DBB2181CBD46EB
:108C600005B090BD80B582B000AF78607B685A884F
:108C7000084B1B889A4207D37B685A88054B5B8850
:108C80009A4201D8012300E00023181CBD4602B01F
:108C900080BDC046C029002080B586B000AF786096
:108CA000294B1A88294B9A424BD0294B1B78013308
:108CB000DAB2274B1A70274B1A7B254B1B789A4246
:108CC00016D3214B1A88244B101C191CFFF7DAFE0F
:108CD000031C7B617B69002B09D01E4B9B69002B19
:108CE00005D01C4B9B697A69101C984729E028E045
:108CF000174B00221A70174B1B7C002B13D0124B02
:108D00001B88181C3B21FFF7C1FE031C3B613B691C
:108D1000002B08D00F4B9B69002B04D00D4B9B6997
:108D20003A69101C98470B4B5B69002B09D03B1C20
:108D30000C3300221A70074B5B693A1C0C32101C72
:108D40009847BD4606B080BDCA290020FFFF00003D
:108D5000C8290020A4290020C029002090B585B092
:108D600000AF7860214B7A6813CA13C313CA13C3C8
:108D700012681A601E4B00221A707B681B68002B59
:108D800015D07B681B681B4A111C1A1C0823081C81
:108D9000111C1A1C03F074FF164B181CFFF786FEFB
:108DA000031CFB60FB68002B0CD0FB6819E0114B27
:108DB000181CFFF77FFE031CFB60FB68002B01D033
:108DC000FB680EE00C4B012252421A800B4B002232
:108DD0001A700B4A0B4B101C00211A1C01F068FA88
:108DE000031C181CBD4605B090BDC046A429002038
:108DF000D8290020C0290020CA290020C829002025
:108E0000D4290020998C010080B500AF044B1B6869
:108E1000181C01F00BFB031C181CBD4680BDC0468E
:108E2000D429002080B584B000AF284B181CFFF770
:108E300019FF031C01225340DBB2002B33D0244B1B
:108E40001B78002B0CD0234B5B69002B2AD03B1DD9
:108E500000221A701F4B5B693A1D101C98472EE0C8
:108E60001D4B1B78002B03D11A4B5B68FB6002E0A3
:108E7000184B9B68FB60194B1A68FB68101C191C87
:108E8000002201F08DFA031CBB60BB68002B09D0E7
:108E9000104B9B69002B05D00E4B9B69BA68101CC8
:108EA00098470CE00BE00B4B5B69002B07D03B1C99
:108EB00001221A70074B5B693A1C101C9847044B3F
:108EC00000221A70BD4604B080BDC046CC290020E7
:108ED000D8290020A4290020C8290020D429002056
:108EE00080B582B000AF78607B689A880B4B1A809F
:108EF0000B497A680E23D2180823081C111C1A1C6F
:108F000003F0BEFE074B00221A70074BDB89002BD3
:108F100001D1FFF787FFBD4602B080BDCA290020FE
:108F2000CC290020C8290020A429002080B584B0C5
:108F300000AF78600E4B012252421A800D4B002286
:108F40001A700D4B1B68181C01F070FA031CFB60B3
:108F5000FB68002B08D0094B9B69002B04D0074B02
:108F60009B69FA68101C9847BD4604B080BDC04696
:108F7000CA290020C8290020D4290020A4290020C3
:108F800080B584B000AF78607B680633FB60FB6817
:108F90001A88144BDB899A4221D1FB681B8B022B68
:108FA0001DD1FB681A33181CFFF744FE031C002B6D
:108FB00002D0FFF737FF12E00B4B1B68181C01F0C3
:108FC00035FA031CBB60BB68002B08D0054B9B69BE
:108FD000002B04D0034B9B69BA68101C9847BD4610
:108FE00004B080BDA4290020D429002080B582B01F
:108FF00000AF786007497A680623D2180823081C56
:10900000111C1A1C03F03CFEFFF70CFFBD4602B01A
:1090100080BDC046CC29002080B582B000AF78600A
:109020007B681B88112B0DD002DC102B05D018E0BB
:10903000122B11D0502B0AD013E07B68181CFFF7BD
:109040004FFF0EE07B68181CFFF770FF09E07B689C
:10905000181CFFF795FF04E07B68181CFFF7C6FF9C
:10906000C046BD4602B080BD80B584B000AF786018
:10907000204A7B68111C1A1C0823081C111C1A1C8E
:1090800003F0FEFD1B4B181CFFF710FD031CFB60DB
:10909000FB68002B29D1184B181CFFF7E3FD031CBC
:1090A00001225340DBB2002B0FD0144B01221A7067
:1090B000134B1A880F4B101C191CFFF7E3FC031C01
:1090C000FB60104B01221A700FE00F4B5B69002B05
:1090D00009D03B1C083301221A700B4B5B693A1C08
:1090E0000832101C98470023FB60FB68181CBD4623
:1090F00004B080BDC0290020CC290020D829002040
:10910000CA290020C8290020A429002080B582B0E7
:1091100000AF78607A68032313405A425341DBB2B0
:10912000181CBD4602B080BD80B582B000AF021CE5
:10913000FB1D1A70064BFA1D1278111C1F220A40E3
:109140000121081C9040021C1A60BD4602B080BD7F
:1091500000E100E080B582B000AF021CFB1D1A7078
:10916000074AFB1D1B78191C1F230B400121081CFB
:109170009840031C191C8023D150BD4602B080BD0D
:1091800000E100E080B582B000AF021CFB1D1A7048
:10919000084AFB1D1B78191C1F230B400121081CCA
:1091A0009840031C191C80235B00D150BD4602B0BF
:1091B00080BDC04600E100E080B582B000AF021C77
:1091C000FB1D1A70084AFB1D1B78191C1F230B403E
:1091D0000121081C9840031C191CC0235B00D150BE
:1091E000BD4602B080BDC04600E100E0B0B582B02F
:1091F00000AF021C3960FB1D1A70FB1D1B787F2B12
:1092000032D93049FB1D1B781A1C0F231340083B31
:1092100098082C4AFB1D1B781C1C0F232340083B7D
:109220009B0806339B00D3185B68FA1D1278141C48
:1092300003222240D200FF24251C95402A1CD24341
:109240001A403B689C01FF231C40FB1D1B781D1C22
:1092500003232B40DB00251C9D402B1C1A43831D40
:109260009B00CB185A6029E0174BFA1D127852B2B6
:1092700092081549F81D007840B28008C03080007F
:109280004158F81D0078041C03202040C000FF2432
:10929000251C8540281CC043084039688C01FF21EB
:1092A0000C40F91D09780D1C03212940C900251C1B
:1092B0008D40291C0143C0329200D150BD4602B0FE
:1092C000B0BDC04600ED00E000E100E080B582B036
:1092D00000AF021CFB1D1A70FB1D1B787F2B16D9DB
:1092E000164AFB1D1B78191C0F230B40083B9B08DB
:1092F00006339B00D3185A68FB1D1B78191C0323E7
:109300000B40DB00DA40FF2313409B0911E00C4BBC
:10931000FA1D127852B29208C0329200D258FB1D48
:109320001B78191C03230B40DB00DA40FF2313409A
:109330009B09181CBD4602B080BDC04600ED00E090
:1093400000E100E023DF7047181CC04624DF7047AF
:10935000181CC04625DF7047181CC04626DF704722
:10936000181CC04627DF7047181CC04628DF70470E
:10937000181CC04629DF7047181CC0462ADF7047FA
:10938000181CC0462BDF7047181CC0462CDF7047E6
:10939000181CC0462DDF7047181CC0462EDF7047D2
:1093A000181CC0462FDF7047181CC04630DF7047BE
:1093B000181CC04631DF7047181CC04632DF7047AA
:1093C000181CC04635DF7047181CC04636DF704792
:1093D000181CC04633DF7047181CC04634DF704786
:1093E000181CC04637DF7047181CC04638DF70476E
:1093F000181CC04639DF7047181CC0463ADF70475A
:10940000181CC0463BDF7047181CC0463CDF704745
:10941000181CC0463DDF7047181CC0463EDF704731
:10942000181CC0463FDF7047181CC04641DF70471C
:10943000181CC04642DF7047181CC04643DF704707
:10944000181CC04640DF7047181CC04644DF7047F8
:10945000181CC04645DF7047181CC04646DF7047E1
:10946000181CC04647DF7047181CC04648DF7047CD
:10947000181CC04649DF7047181CC0464ADF7047B9
:10948000181CC0464BDF7047181CC0464CDF7047A5
:10949000181CC0464DDF7047181CC04651DF70478E
:1094A000181CC04652DF7047181CC04621DF7047A9
:1094B000181CC04620DF7047181CC04622DF7047CA
:1094C000181CC0464EDF7047181CC0464FDF70475F
:1094D000181CC04650DF7047181CC04680B582B0CB
:1094E00000AF7860C046C046C046C046C046C046D1
:1094F000C046C046C046C046C046C046C046C0463C
:109500007B68013B7B60002BECD1BD4602B080BD87
:1095100080B582B000AF0C4B5B68DB05DB0D7B6078
:109520007B68002B0BD07B68103B3B603B68DBB259
:109530005BB2181CFFF7CAFE031CDBB200E0042379
:10954000181CBD4602B080BD00ED00E080B582B0C1
:1095500000AF7860054AA123DB007968D150112063
:109560000321FFF743FEBD4602B080BD001001405D
:1095700080B500AF0E4AD1239B0080214902D15013
:109580000B4AC1239B0080214902D1501120FFF7D3
:1095900013FE1120FFF7C8FD054B01221A602F2092
:1095A000FFF79CFF034B01221A70BD4680BDC046E9
:1095B00000100140042A002080B500AF1120FFF701
:1095C000C9FD104AD2239B0080214902D1500D4A87
:1095D000C2239B0080214902D1500A4B01225A60CC
:1095E0002F20FFF77BFF074B01229A60064B0022DA
:1095F0001A602F20FFF772FF044B00221A70BD463D
:1096000080BDC04600100140F0290020042A00203F
:1096100080B500AF024A034BD358181CBD4680BD2D
:10962000001001400405000080B582B000AF7860F2
:1096300039607A683B68D31A1B021B0A181CBD46A6
:1096400002B080BD80B582B000AF7860034AA82325
:10965000DB007968D150BD4602B080BD00100140EA
:1096600080B586B000AF78604C4B19687A68131CDF
:10967000DB009B189B00CB18BB60494B1B68013378
:1096800003D1474B7A681A6084E0BB685968434B42
:109690001868434B1A68131CDB009B189B00C31807
:1096A0005B6899421ED83D4B19683D4B1A68131CE4
:1096B000DB009B189B00CA18384B1868384B196898
:1096C0000B1CDB005B189B00C3185968BB685B6808
:1096D000CB1A5360324B1A68BB681A62304B7A68F7
:1096E0001A6057E0BB685B68FB602D4B1B687B61B1
:1096F0002B4B1B683B6117E0284B19683A69131C18
:10970000DB009B189B00CB185B68FA68D31AFB60E0
:109710003B697B61214B19683A69131CDB009B187C
:109720009B00CB181B6A3B613B6901330BD01B4B81
:1097300019683A69131CDB009B189B00CB185A6808
:10974000FB689A42D8D33B69013313D0134B196895
:109750003A69131CDB009B189B00CA180F4B186852
:1097600039690B1CDB005B189B00C3185968FB6848
:10977000CB1A5360BB68FA685A60BB683A691A62D0
:10978000064B19687A69131CDB009B189B00CB18E9
:109790007A681A62BD4606B080BDC046E029002046
:1097A000EC29002080B586B000AF7860394B1B688B
:1097B0007B617B693B6110E03A697B689A4200D12A
:1097C0000EE03B697B61344B19683A69131CDB007E
:1097D0009B189B00CB181B6A3B613B690133EBD1A3
:1097E0003B69013300D152E07A693B699A4211D159
:1097F000294B1968274B1A68131CDB009B189B0028
:10980000CB181A6A234B1A60224B1B68013301D113
:10981000FFF7D2FE204B19683A69131CDB009B1836
:109820009B00CB185B68FB601B4B19687A69131CA3
:10983000DB009B189B00CA18174B186839690B1C72
:10984000DB005B189B00C3181B6A1362124B19687C
:109850007A69131CDB009B189B00CB181B6A3B61C9
:109860003B69013313D00C4B19683A69131CDB00B8
:109870009B189B00CA18084B186839690B1CDB0041
:109880005B189B00C3185968FB68CB185360BD4632
:1098900006B080BDEC290020E029002080B500AF93
:1098A0001120FFF76FFCBD4680BDC04680B500AFFC
:1098B0001420FFF767FCBD4680BDC04680B584B06C
:1098C00000AF7860144B1B68002B1BD0124B1A683A
:1098D0007B6899697B68DB69081C191C9047031C2D
:1098E000FB60FB68BB60BB68002B0AD0B9686423CF
:1098F0001A1CFF32094B081C111C1A1CFCF704FF30
:1099000006E005E07B689A697B68DB69181C904774
:10991000BD4604B080BDC046002A0020BCD2010074
:1099200080B584B000AF2B4B1B6801334FD00023B0
:109930007B60FFF76DFE021C274B1B68101C191C77
:10994000FFF772FE031CBB60224B1B68FB601FE02D
:10995000224B1968FA68131CDB009B189B00CB187C
:109960003B603B685A68BB689A4200D913E03B6889
:109970005B68BA68D31ABB603B685B687A68D318C7
:109980007B603B681B6AFB603B68181CFFF796FF17
:10999000FB680133DCD1124B1A78124B1B789A42C8
:1099A0000CD1104B1B780133DAB20E4B1A700D4BF1
:1099B0001B78022B02D10B4B00221A70094B1B782B
:1099C0001A1C094B92007968D150FFF76FFFBD4612
:1099D00004B080BDEC290020F0290020E0290020FF
:1099E000FC290020FD290020F429002080B582B048
:1099F00000AF7860184B1A78184B1B789A4223D026
:109A0000154B1B780133DAB2134B1A70124B1B78CB
:109A1000022B02D1104B00221A700F4B1B781A1C1C
:109A20000F4B9200D2587B681A607B681A680D4B06
:109A30001B68D2180B4B1A600A4B1B681B021A0AD0
:109A4000084B1A60012303E07B6800221A600023A0
:109A5000181CBD4602B080BDFC290020FD29002055
:109A6000F4290020F029002080B586B000AF434BD8
:109A70001B683B613B1C1733414A12781A7068E03F
:109A8000404B1A683B1C17331B78DB00D318FB6074
:109A90003B1C1633FA6812781A7053E0FB68596859
:109AA0003B1C16331A78131C5B009B18DB00CB1889
:109AB000BB603B1C16331A783B1C163301321A70FC
:109AC000FB689B783A1C163212789A4203D13B1CF1
:109AD000163300221A70BB681B78022B02D0032BAE
:109AE0002AD02FE0284B1968BB685A68131CDB008A
:109AF0009B189B00CB187B607B681B7D002B08D0DC
:109B0000BB685B68181CFFF74DFE7B6800221A7566
:109B100018E017E01C4B1968184B1A68131CDB007F
:109B20009B189B00CB183B603B6800221A753B6872
:109B30001A6A124B1A6000E0C046104B1B680133D2
:109B4000E8D1C046FB685B783A1C163212789A421C
:109B5000A4D13B1C17331B783A1C1732591E1170C5
:109B6000002B8DD1054B1A683B69D31A5A1E9341BD
:109B7000DBB2181CBD4606B080BDC046EC290020F3
:109B8000E4290020E8290020E029002080B588B0E1
:109B900000AFF860B9607A600023FB6142E0254BBA
:109BA0001968254B1A68131CDB009B189B00CB1807
:109BB000BB61BB695A68FB689A4206D9BB695A689F
:109BC000FB68D21ABB695A6030E0BB695B68FA680F
:109BD000D31AFB60BB695B68FA69D318FB61BB6988
:109BE00000225A60BB6900221A75134B1B687B6107
:109BF000BB691A6A104B1A60BB691B69002B11D034
:109C0000BA68FB69D3181B021A0ABB699A60BB6960
:109C10001A69BB69DA607B681A68BB691A627B687B
:109C20007A691A60044B1B680133B8D1BD4608B08D
:109C300080BDC046E0290020EC29002080B58AB014
:109C400000AF7860624B1B68BB613B1C2733614AE5
:109C500012781A70A7E0604B1A683B1C27331B78F8
:109C6000DB00D3187B6193E07B6801330ED07B6807
:109C70003B625A4B19683A6A131CDB009B189B0025
:109C8000CB18FB61FB691B6A7B603EE07B6959680E
:109C90007B691B781A1C131C5B009B18DB00CB181C
:109CA0003B617B691B780133DAB27B691A707B698F
:109CB0001A787B699B789A4202D17B6900221A70DC
:109CC0003B695B683B62454B19683A6A131CDB00D1
:109CD0009B189B00CB18FB613B691B78012B03D1C0
:109CE000FB691B7D002B00D052E03B699A68FB6941
:109CF0009A603B69DA68FB69DA603B691A69FB695B
:109D00001A613B695A69FB69DA61FB699A68344BED
:109D10001B68D31A1B021A0A324B9A420ED8FB69EF
:109D20009A682F4B1B68101C191CFFF77DFC021C46
:109D3000FB69DB68D218FB695A6018E0284B1A6887
:109D4000FB699B68101C191CFFF76EFC031CFB6071
:109D5000FB69DA68FB689A4206D9FB69DA68FB6836
:109D6000D21AFB695A6002E0FB6900225A60FB6963
:109D700000229A60FB690022DA60FB6901221A75F1
:109D8000FB69012252421A623B6A181CFFF768FC09
:109D90007B68013300D067E77B691A787B695B7861
:109DA0009A4200D060E73B1C27331B783A1C2732CD
:109DB000591E1170002B00D04DE7054B1A68BB6986
:109DC000D31A5A1E9341DBB2181CBD460AB080BD9F
:109DD000EC290020E4290020E8290020E0290020C7
:109DE000F0290020FEFF7F0090B589B000AF7860B9
:109DF0002A4B1B6801334CD0294B1968274B1A6832
:109E0000131CDB009B189B00CB185B68FB61FFF702
:109E1000FFFB031CBB61234B1B687B61BA697B6939
:109E2000101C191CFFF700FC031C03333B611E4B85
:109E30001B7801225340DBB2002B01D0FFF798FBC7
:109E4000FA693B69934200D2131C7A69D3187B618B
:109E50007B691B021B0A7B617B69181CFFF7F2FB05
:109E6000FFF7D6FB031CFB60FA68BB69101C191CCA
:109E7000FFF7DAFB031CDC1C7A69BB69101C191C98
:109E8000FFF7D2FB031C9C4202D9FFF707FD02E05B
:109E900001E0FFF791FBBD4609B090BDEC29002021
:109EA000E0290020F0290020042A002090B587B086
:109EB00000AF01235B427B601D4B1B683B611D4B68
:109EC0001B68FB603C1C0B343B1C181CFFF78EFD11
:109ED000031C23703C1C1734FFF7C6FD031C2370C2
:109EE0003B1C0B331B78002B0BD039683A693B1DA8
:109EF000081C111C1A1CFFF749FE3B1C17330122DA
:109F00001A707B68181CFFF799FE031C002B03D006
:109F10003B1C173301221A703B1C17331B78002B94
:109F200003D0FB68181CFFF75FFFBD4607B090BD6C
:109F3000F0290020EC29002080B582B000AF7860C5
:109F400039603B68DAB27B685A70BD4602B080BDAA
:109F500080B584B000AF786039607B685B7801338E
:109F6000FB607B689B781A1CFB689A4201D1002336
:109F7000FB607B681B781A1CFB689A4201D10023A6
:109F80000EE03B68FA681A607B6859687B685B780A
:109F90001A1C131C5B009B18DB00CB18BB60BB6852
:109FA000181CBD4604B080BD80B586B000AFF86017
:109FB000B9607A603B601B4B1A68FB68DB00D21803
:109FC0003B1C1033101C191CFFF7C2FF031C7B61E4
:109FD0007B69002B01D1042320E07B6901221A70E8
:109FE0007B69BA685A60FFF713FB021C7B699A60B1
:109FF0007B697A68DA607B693A681A617B693A6AD8
:10A000005A61084B1A68FB68DB00D2183B69101CC8
:10A01000191CFFF791FFFFF749FC0023181CBD46F0
:10A0200006B080BDE829002080B584B000AF78601C
:10A030003960144B1A687B68DB00D2183B1C08336C
:10A04000101C191CFFF784FF031CFB60FB68002B2E
:10A0500001D1042312E0FB6802221A70FB683A68FF
:10A060005A60084B1A687B68DB00D218BB68101C6A
:10A07000191CFFF761FFFFF719FC0023181CBD46F0
:10A0800004B080BDE829002080B584B000AF7860BE
:10A09000144B1A687B68DB00D2183B1C0833101C79
:10A0A000191CFFF755FF031CFB60FB68002B01D157
:10A0B000042313E0FB6803221A70FB68012252425A
:10A0C0005A60084B1A687B68DB00D218BB68101C0A
:10A0D000191CFFF731FFFFF7E9FB0023181CBD46F1
:10A0E00004B080BDE829002080B500AF104AA0234D
:10A0F0005B000021D1500E4AA2235B000021D15009
:10A100000B4AA4235B000021D150094AA6235B001F
:10A110000021D150064A80235B000021D150044A1F
:10A1200082235B000021D150FFF7FAFBBD4680BDC2
:10A130000010014080B500AFFFF7B8FEBD4680BDFE
:10A1400080B586B000AFF8607B603B1C0B331970A4
:10A150003B1C0A331A707B68181CFEF7D7FF031CE0
:10A1600001225340DBB2002B01D0072389E07B683A
:10A17000002B01D1072384E0FFF71EFA434B3A6A14
:10A180001A60434B3A1C0B3212781A70414B7A68B2
:10A190001A6000237B6116E03E4B19687A69131C34
:10A1A000DB009B189B00CB1800221A70394B1968F2
:10A1B0007A69131CDB009B189B00CB1800221A75D0
:10A1C0007B6901337B613B1C0B331A787B699A42B4
:10A1D000E2DC3B1C0B331A78131CDB009B189B0042
:10A1E0007A68D3187B602C4B03221A702B4B7A6849
:10A1F0001A607B6818337B6000237B6120E0274B6B
:10A200001A687B69DB00D3183B613B6900221A7036
:10A210003B6900225A703B693A1C0A3212789A70E4
:10A220003B697A685A603B1C0A331A78131C5B003E
:10A230009B18DB007A68D3187B607B6901337B61F4
:10A240007B69022BDBDD164B012252421A60154B53
:10A2500000221A70144B00221A701420FEF7ACFF73
:10A2600014200321FEF7C2FF1420FEF75DFFFB68F8
:10A27000181CFFF76BF9FFF7CBF9021C0B4B1A60A8
:10A280000023181CBD4606B080BDC046002A002031
:10A29000DC290020E0290020E4290020E829002012
:10A2A000EC290020FC290020FD290020F0290020B5
:10A2B00080B586B000AFF8607A603B1C0B330A1C97
:10A2C0001A70284B1B68002B01D1082346E07B68DD
:10A2D000002B01D1072341E0FB68002B01D10723AC
:10A2E0003CE000237B6132E01E4B19687A69131C45
:10A2F000DB009B189B00CB181B78002B24D1194B3B
:10A3000019687A69131CDB009B189B00CB1801228B
:10A310001A70144B19687A69131CDB009B189B0098
:10A32000CB183A1C0B3212785A700E4B19687A69A6
:10A33000131CDB009B189B00CB187A689A617A6922
:10A34000FB681A60002309E07B6901337B61064BDF
:10A350001B781A1C7B699A42C6DC0423181CBD4674
:10A3600006B080BDE0290020DC29002080B582B045
:10A3700000AFFFF7CDF8031C012B02D0032B03D055
:10A3800005E000237B6005E001237B6002E00223FF
:10A390007B60C0467B68181CBD4602B080BDC046CD
:10A3A00090B589B002AFF860B9607A601D4B1B6848
:10A3B000002B01D1082330E01B4B1B781A1CFB68D3
:10A3C0009A4202D9BB68042B01D8072325E0154B1C
:10A3D0001968FA68131CDB009B189B00CB181B78CC
:10A3E000012B01D0082318E00E4B1968FA68131CE2
:10A3F000DB009B189B00CB185B78012B01D1BB685D
:10A4000000E000237B61FFF7B1FFF968BA687B6960
:10A410007C680094FFF7C8FD031C181CBD4607B0FC
:10A4200090BDC046E0290020DC29002080B582B024
:10A4300000AF7860134B1B68002B01D108231DE08F
:10A44000114B1B781A1C7B689A4201D8072315E030
:10A450000C4B19687A68131CDB009B189B00CB1807
:10A460001B78012B01D0082308E0FFF77FFF021CB7
:10A470007B68101C191CFFF7D7FD031C181CBD4678
:10A4800002B080BDE0290020DC29002080B500AFAB
:10A49000074B1B68002B01D1082306E0FFF766FF7E
:10A4A000031C181CFFF7F0FD031C181CBD4680BDE3
:10A4B000E029002080B582B000AF7860FFF7A8F8EF
:10A4C000021C7B681A600023181CBD4602B080BDC8
:10A4D00080B584B000AFF860B9607A60FA68BB6894
:10A4E000101C191CFFF7A0F8021C7B681A600023DF
:10A4F000181CBD4604B080BD80B582B000AF021C00
:10A50000FB1D1A70064BFA1D1278111C1F220A40FF
:10A510000121081C9040021C1A60BD4602B080BD9B
:10A5200000E100E080B582B000AF021CFB1D1A7094
:10A53000084AFB1D1B78191C1F230B400121081C16
:10A540009840031C191CC0235B00D150BD4602B0CB
:10A5500080BDC04600E100E0B0B582B000AF021C93
:10A560003960FB1D1A70FB1D1B787F2B32D93049D7
:10A57000FB1D1B781A1C0F231340083B98082C4A1C
:10A58000FB1D1B781C1C0F232340083B9B08063334
:10A590009B00D3185B68FA1D1278141C032222401A
:10A5A000D200FF24251C95402A1CD2431A403B6848
:10A5B0009C01FF231C40FB1D1B781D1C03232B400B
:10A5C000DB00251C9D402B1C1A43831D9B00CB18D0
:10A5D0005A6029E0174BFA1D127852B292081549B9
:10A5E000F81D007840B28008C03080004158F81D46
:10A5F0000078041C03202040C000FF24251C854057
:10A60000281CC043084039688C01FF210C40F91D0B
:10A6100009780D1C03212940C900251C8D40291CE7
:10A620000143C0329200D150BD4602B0B0BDC04619
:10A6300000ED00E000E100E080B582B000AF78609E
:10A640007A68032313405A425341DBB2181CBD46BB
:10A6500002B080BD80B586B000AF7860396000235D
:10A660007B6145E07B690122111C99400B1CFB605A
:10A670003B68FA68134038D07B68DB68FA6813409F
:10A6800009D180239B023B617B68DA68FB681A432F
:10A690007B68DA6009E0C0239B023B617B68DB6872
:10A6A000FA68D2431A407B68DA60A023DB05A02257
:10A6B000D2057969C131FF31890089580F4A1140AB
:10A6C0007A69C132FF329200D150A023DB05A0226B
:10A6D000D2057969C131FF31890089583A6911433E
:10A6E0007A69C132FF329200D1507B6901337B61BC
:10A6F0007B691F2BB6D9BD4606B080BDFFFFFCFFAE
:10A7000080B588B000AFA023DA05A223DB00D358C0
:10A71000BB613E4ABE235B000021D1503B1C1F336E
:10A7200000221A7068E03A4B19683B1C1F331A78F4
:10A73000131C9B009B189B00CB183B613B1C1F33D9
:10A740001B780122111C99400B1C1A1C314B1B68F1
:10A7500013404AD03B69DB68DA43BB695A403B6926
:10A760001B6813407B613A697B69101C191CFFF759
:10A7700071FFA023DA05A223DB00D258BB69534046
:10A78000FB60FB68002B16D0BA69FB681343BB6102
:10A790003B69DB68DA43BB695A403B691B6813407D
:10A7A000BB603A69BB68101C191CFFF753FF7A693C
:10A7B000BB6813437B61BB69DA433B699B68134009
:10A7C0007A6913407B603B695B68BA6913407A69B8
:10A7D00013403B603A687B68134306D03B691B69B2
:10A7E00039687A68081C111C98473B1C1F331A787B
:10A7F0003B1C1F3301321A70074B1B783A1C1F3267
:10A8000012789A428FD3BD4608B080BD00600040E8
:10A81000102A0020082A00200D2A002080B584B0CC
:10A8200000AF021CFB1D1A700023FB6031E01C4BC3
:10A830001968FB1D1A78131C9B009B189B00CB18F2
:10A840001B68FA680121081C9040021C13401DD0AF
:10A85000A023DB05A022D205F968C131FF318900B0
:10A860008958104A1140FA68C132FF329200D15023
:10A87000A023DB05A022D205F968C131FF31890090
:10A880008958FA68C132FF329200D150FB68013317
:10A89000FB60FB681F2BCAD9BD4604B080BDC04613
:10A8A000102A0020FFFFFCFF80B582B000AF021C21
:10A8B0003960FB1D1A703B68002B01D1072337E07C
:10A8C0003B68181CFFF7B8FE031C01225340DBB2A3
:10A8D000002B01D007232BE0174B3A681A60174B67
:10A8E000FA1D12781A70164B00221A70154B0022AE
:10A8F0001A60114B1968114B1B781A1C131C9B0012
:10A900009B189B00081C00211A1C02F0FBF90E4A40
:10A91000C2239B0001214942D1500620FFF702FECD
:10A9200006200121FFF718FE0620FFF7E5FD0023B2
:10A93000181CBD4602B080BD102A00200C2A002041
:10A940000D2A0020082A00200060004080B584B055
:10A9500000AFF860B9607A603B602B4B1B68002B3E
:10A9600001D108234CE03B68002B01D1072347E0CD
:10A97000264B1A78264B1B789A4201D304233FE0DA
:10A98000214B1968214B1B781A1C131C9B009B1828
:10A990009B00CB18B9687A680A431A601A4B196889
:10A9A0001A4B1B781A1C131C9B009B189B00CB187E
:10A9B000BA685A60144B1968144B1B781A1C131C84
:10A9C0009B009B189B00CB187A689A600E4B196805
:10A9D0000E4B1B781A1C131C9B009B189B00CB185A
:10A9E0003A681A61094B1B785A1CD1B2074A117098
:10A9F000FA681370FB681B78181CFFF70FFF002321
:10AA0000181CBD4604B080BD102A00200D2A00206D
:10AA10000C2A002080B586B000AF021CFB1D1A7006
:10AA20004D4B1B68002B01D1082391E04B4B1B7849
:10AA3000FA1D12789A4201D3072389E0484ABE23BF
:10AA40005B000021D150A023DA05A223DB00D358FC
:10AA5000FB60444B1B68002B05D1414AC1239B007E
:10AA600080210906D150FB1D1B780122111C994041
:10AA70000B1C1A1C3B4B1B681A433A4B1A60364B93
:10AA80001968FB1D1A78131C9B009B189B00CB18A0
:10AA90000022DA6000237B6156E07B690122111CF1
:10AAA00099400B1CBB602C4B1968FB1D1A78131CBA
:10AAB0009B009B189B00CB181B68BA68134040D0C2
:10AAC000FB68BA68134003D0C0239B023B6118E0C7
:10AAD00080239B023B61204B1968FB1D1A78131CD5
:10AAE0009B009B189B00CA181B4B1868FB1D19780C
:10AAF0000B1C9B005B189B00C318D968BB680B43F9
:10AB0000D360A023DB05A022D2057969C131FF31D2
:10AB100089008958144A11407A69C132FF32920083
:10AB2000D150A023DB05A022D2057969C131FF31C4
:10AB3000890089583A6911437A69C132FF3292001B
:10AB4000D1507B6901337B617B691F2BA5D9002321
:10AB5000181CBD4606B080BD102A00200D2A00201A
:10AB600000600040082A0020FFFFFCFF80B582B093
:10AB700000AF021CFB1D1A70164B1B68002B01D185
:10AB8000082323E0144B1B78FA1D12789A4201D354
:10AB900007231BE0FB1D1B78181CFFF73FFEFB1D66
:10ABA0001B780122111C99400B1CDA430B4B1B68CC
:10ABB0001A400A4B1A60094B1B68002B05D1084A42
:10ABC000C2239B0080210906D1500023181CBD46DA
:10ABD00002B080BD102A00200D2A0020082A002083
:10ABE0000060004080B584B000AF021C3960FB1DDE
:10ABF0001A70134B1B68002B01D108231CE0114B6A
:10AC00001B78FA1D12789A4201D3072314E00C4BEB
:10AC10001968FB1D1A78131C9B009B189B00CB180E
:10AC2000FB60A023DA05A223DB00D258FB681B6877
:10AC30001A403B681A600023181CBD4604B080BD52
:10AC4000102A00200D2A002080B582B000AF021C1F
:10AC5000FB1D1A70064BFA1D1278111C1F220A40A8
:10AC60000121081C9040021C1A60BD4602B080BD44
:10AC700000E100E080B582B000AF021CFB1D1A703D
:10AC8000084AFB1D1B78191C1F230B400121081CBF
:10AC90009840031C191C80235B00D150BD4602B0B4
:10ACA00080BDC04600E100E0B0B582B000AF021C3C
:10ACB0003960FB1D1A70FB1D1B787F2B32D9304980
:10ACC000FB1D1B781A1C0F231340083B98082C4AC5
:10ACD000FB1D1B781C1C0F232340083B9B080633DD
:10ACE0009B00D3185B68FA1D1278141C03222240C3
:10ACF000D200FF24251C95402A1CD2431A403B68F1
:10AD00009C01FF231C40FB1D1B781D1C03232B40B3
:10AD1000DB00251C9D402B1C1A43831D9B00CB1878
:10AD20005A6029E0174BFA1D127852B29208154961
:10AD3000F81D007840B28008C03080004158F81DEE
:10AD40000078041C03202040C000FF24251C8540FF
:10AD5000281CC043084039688C01FF210C40F91DB4
:10AD600009780D1C03212940C900251C8D40291C90
:10AD70000143C0329200D150BD4602B0B0BDC046C2
:10AD800000ED00E000E100E080B584B000AFF860C5
:10AD9000B960111C1A1CFB1D1970BB1D1A70BB1D5C
:10ADA0001B78002B11D1A023DA05BB680121081CF8
:10ADB0009840031C191C1E4BD1501E4BFA6845329B
:10ADC000FF3292001C49D15011E0A023DA05BB6884
:10ADD0000121081C9840031C191CA123DB00D15041
:10ADE000144BFA684532FF3292001449D150C046E4
:10ADF000C046C0460F4BFA6892000121D1500D4B5E
:10AE0000BA681102FA1D127812041143BA1D1278A1
:10AE100012050A4303211143FA684532FF329200BA
:10AE2000D150C046C046C046BD4604B080BDC046F5
:10AE30000C05000000600040031F0200031F01001A
:10AE400080B582B000AF7860044B7A684532FF323B
:10AE500092000349D150BD4602B080BD0060004061
:10AE6000001F030080B582B000AF7860A023DB052F
:10AE70007A68C132FF3292000321D150BD4602B040
:10AE800080BDC04680B582B000AF7860A023DA05EF
:10AE90007B6801219940A123DB00D150BD4602B05F
:10AEA00080BDC04680B582B000AF7860A023DA05CF
:10AEB0007B6801219940024BD150BD4602B080BD54
:10AEC0000C05000080B582B000AF786039603B6847
:10AED000002B04D17B68181CFFF7E4FF03E07B68BC
:10AEE000181CFFF7CFFFBD4602B080BD80B582B011
:10AEF00000AF78600A1CFB1C1A707A680D4B9A42EE
:10AF000004D10D4BFA1C12781A6010E07A680B4BD2
:10AF10009A4204D10A4BFA1C12781A6007E07A6848
:10AF2000084B9A4203D1084BFA1C12781A60BD46AE
:10AF300002B080BD008000400C8C004000900040BA
:10AF40000C9C004000A000400CAC004080B582B0DA
:10AF500000AF78603960144B1B683A689A4211D888
:10AF60007A683B689A420BD3104B1A683B68D21838
:10AF70000D4B1B68D21A7B689A4201D901230FE05E
:10AF800000230DE0084B1B683A68D21A7B689A428E
:10AF900003D87A683B689A4201D3012300E000237A
:10AFA000181CBD4602B080BD08200020142A0020D5
:10AFB00080B584B000AFF860B9607A60FB680F2B91
:10AFC00000D915E00C4BB968FA68A232D200D15012
:10AFD00009497A68FB68A233DB00CB185A60064A3D
:10AFE000FB680121081C9840031C191C034BD1501D
:10AFF000BD4604B080BDC04600F00140040500001D
:10B00000B0B586B000AF78607B681B78002B03D0AA
:10B010007B681B78042B02D901235B4272E17B68B9
:10B020005B7C052B3BD89A00B84BD3181B689F4616
:10B03000B74AA223DB000921D150B64B64221A6023
:10B0400030E0B34AA223DB000921D150B14BFF22EB
:10B050001A6027E0AE4AA223DB000621D150AD4B97
:10B06000FA2292001A601DE0A94AA223DB00032104
:10B07000D150A84B64221A6014E0A54AA223DB0039
:10B080000121D150A34BFF221A600BE0A04AA2235A
:10B09000DB000021D1509F4BFF221A6002E0012308
:10B0A0005B422FE19A4AA223DB00D3589A4AD35C31
:10B0B0001A1C9A4B1A607B681B781A1C984B1A60F2
:10B0C00000237B6121E07A687B69D31801331B7808
:10B0D000191C944B7A699200D150924B7A69920074
:10B0E000D358181CFFF7BEFE8F4B7A6992000021DF
:10B0F000D1507A687B69D3180D331A788B497B69F4
:10B10000CB181A707B6901337B617A69844B1B68A9
:10B110009A42D8D37E4B0122DA607D4AA123DB001C
:10B120000021D1507A4A7B4B1968814B1960804BC2
:10B130001968A923DB00D150754A7E4B0021D150FC
:10B14000734A80239B000421D15071497048704C90
:10B150006F4D0023A6225200AB50A4225200A350F0
:10B16000A22252008350A02252008B506C4B1B68CD
:10B17000022B33D9704B0122DA606F4AA123DB0026
:10B180000021D1506C4A634B1968694B1960684BB8
:10B190001968A923DB00D150674A664B0021D150C2
:10B1A000654A80239B000421D15063496248624C68
:10B1B000614D0023A6225200AB50A4225200A3509E
:10B1C000A22252008350A02252008B505A4A50496A
:10B1D000A223DB00C958A223DB00D15000233B612E
:10B1E00031E03B695B007A68D3185B79191C3B69D5
:10B1F0009B0052481A184D483B69C3181B789B00A6
:10B200004F481B18081C111C1A1CFFF7D1FE3B6984
:10B210005B0001337A68D3185B79191C434A3B6998
:10B22000D3181B789B00464A9B18464A081C111CE1
:10B230001A1CFFF7BDFE444A3B69D31800221A705E
:10B240003B6901333B613A69354B1B689A4202D234
:10B250003B69012BC5DD0223FB6032E0FB685B002C
:10B260007A68D3185B79191CFB68023B9B0037484E
:10B270001A182E48FB68C3181B789B0030481B180F
:10B28000081C111C1A1CFFF793FEFB685B000133BE
:10B290007A68D3185B79191C244AFB68D3181B7889
:10B2A0009B00274A9B182A4A081C111C1A1CFFF7EE
:10B2B0007FFE254AFB68D31800221A70FB68013311
:10B2C000FB60FA68164B1B689A42C7D30A2000211C
:10B2D000FFF7EAFC0A20FFF7B7FC0D4B181C012111
:10B2E000FFF704FE0A4B01221A600D4B1B68022B6C
:10B2F00007D9114B181C0121FFF7F8FD0E4B012255
:10B300001A600023181CBD4606B0B0BDF8D201007B
:10B3100000A00040142A0020ECD2010008200020E8
:10B32000542A00202C2A00203C2A0020502A0020E9
:10B33000282A0020040500000090004040A10040A1
:10B340000060004048A100404C2A0020409100408D
:10B350004891004080B582B000AF78603960084BFA
:10B360007A6892003968D150064A7B68D318012266
:10B370001A700A20FFF77EFCBD4602B080BDC046B1
:10B38000182A00204C2A002080B584B000AF7860D5
:10B3900039600023FB6010E0FB689B003A68D3181B
:10B3A00019680B4BFA689200D1500A4AFB68D3180F
:10B3B00001221A70FB680133FB60FA687B689A42CD
:10B3C000EAD30A20FFF756FCBD4604B080BDC04654
:10B3D000182A00204C2A002080B582B000AF786087
:10B3E000024B7A681A60BD4602B080BD282A002050
:10B3F00080B584B000AF021CFB1D1A70FB1D1B78CA
:10B40000002B0AD01B4B01221A601B4B1B68022B1E
:10B410002CD91A4B01221A6028E0164B01225A60DF
:10B42000154B1B68022B02D9144B01225A600023D2
:10B43000FB6016E0124AFB68D3181B78181CFFF754
:10B44000FFFC104BFA689200D358181C0021FFF73C
:10B4500039FD0D4BFA6892000021D150FB68013391
:10B46000FB60054B1B68FA689A42E3D3BD4604B003
:10B4700080BDC04600A00040542A0020009000403B
:10B48000502A00202C2A00203C2A002098B500AF2A
:10B49000D24AD34B1968D34B1960D24B1968A923F0
:10B4A000DB00D150D04B1B68022B05D9CF4ACD4BC6
:10B4B0001968A923DB00D150CD4B00221A6083E12B
:10B4C000CB4B1B68CB4AD35C002B00D177E1C84B38
:10B4D0001B68C84A0021D154C54B1A68C64B92005C
:10B4E000D358002B16D1C24B1B68C44AD35C181C1E
:10B4F000FFF7A6FCBE4B1A68C14B9200D358181C2C
:10B500000021FFF7DFFCBA4B1A68BE4B9200002106
:10B51000D15054E1B64B1A68B74B9200D258B14B98
:10B520001B689A4216D3B24B1B68B44AD35C181CF2
:10B53000FFF786FCAE4B1A68B14B9200D358181C2B
:10B540000121FFF7BFFCAA4B1A68AE4B9200002105
:10B55000D15034E1A64B1B68012B00D996E0A44BD7
:10B560001A68A54B9200D258A74B1A609B4AA04B71
:10B570001B685133FF339B009A58A44B1A609C4BB5
:10B580001A68A04B9200D358002B32D1984B1B68FD
:10B590009A4AD35C1A1C964B1968994B8900CB5870
:10B5A000101C191C03220123FFF7EEFB904B1A68B5
:10B5B000944B92000121D150884B0122DA64874AD2
:10B5C000934BD258904B1B689A4207D9914A884BAB
:10B5D0001B688A49CB5C9B00012199507F4A844BB0
:10B5E0001868894B1968A824640003199B009950B6
:10B5F000E5E07A4B0122DA64784A854BD258834BD6
:10B600001B68101C191CFFF7A1FC031C002B14D095
:10B61000724A7F4BD2587C4B1B68101C191CFFF7D9
:10B6200095FC031C002B08D0C0466C4A784BD258BE
:10B63000764B1B689A4208D300E0DAE7674A744BFE
:10B64000D258714B1B689A420DD3644A704BD25842
:10B650006E4B1B689A420ED2604A6D4BD2586A4BB1
:10B660001B689A4207D36B4A614B1B686349CB5CEA
:10B670009B0001219950594A5D4B1868624B19682B
:10B68000A824640003199B00995098E0584B1A684D
:10B69000594B9200D2585C4B1A60544A544B1B6869
:10B6A000023B5133FF339B009A58584B1A60504B62
:10B6B0001A68544B9200D358002B33D14C4B1B6863
:10B6C0004E4AD35C1A1C4A4B19684D4B8900CB5823
:10B6D000101C191C03220123FFF756FB444B1A6868
:10B6E000484B92000121D150404B0122DA643F4A7D
:10B6F000474BD258444B1B689A4207D9454A3C4BAA
:10B700001B683E49CB5C9B0001219950374A384B5E
:10B710001B68981E3C4B1968A824640003199B0001
:10B7200099504CE0314B0122DA64304A384BD25800
:10B73000364B1B68101C191CFFF708FC031C002B60
:10B7400014D02A4A324BD2582F4B1B68101C191C9C
:10B75000FFF7FCFB031C002B08D0C046234A2C4BF0
:10B76000D2582A4B1B689A4208D300E0DAE71F4AF6
:10B77000274BD258244B1B689A420DD31B4A244BAB
:10B78000D258224B1B689A420ED2184A204BD258EC
:10B790001D4B1B689A4207D31E4A154B1B6817495D
:10B7A000CB5C9B0001219950104A114B1B68981EDD
:10B7B000154B1968A824640003199B0099500C4B81
:10B7C0001B685A1C0A4B1A60094B1A68064B1B6807
:10B7D0009A4200D274E6BD4698BDC04600A0004023
:10B7E000282A0020142A0020542A0020009000401B
:10B7F000582A00204C2A0020182A0020502A002015
:10B800002C2A00203C2A00205C2A0020602A0020EC
:10B810004C0500000060004080B500AF024B034AB9
:10B820001A60BD4680BDC0460C2000200024F400F4
:10B8300080B500AF00F01EF8031C002B06D00A4BA9
:10B840000A4A1A600A4B802212021A6000F052F86B
:10B85000031C002B05D08023DA05C123DB00012166
:10B86000D150BD4680BDC04604050040DFFF07C083
:10B87000186C004080B500AF1A4B1A68FF231340C4
:10B88000012B2AD1184B1A680F23134025D1174BCF
:10B890001A68F023134006D1154B1A68F0231340A1
:10B8A00001D101231AE0114B1A68F0231340102B29
:10B8B00006D10F4B1A68F023134001D101230DE08C
:10B8C0000A4B1A68F0231340302B06D1084B1A6834
:10B8D000F023134001D1012300E00023181CBD46D2
:10B8E00080BDC046E00F00F0E40F00F0E80F00F06C
:10B8F000EC0F00F080B500AF0D4B1A68FF2313402A
:10B90000012B11D10B4B1A680F2313400CD10A4B9A
:10B910001A68F0231340402B06D1084B1A68F02315
:10B92000134001D1012300E00023181CBD4680BD57
:10B93000E00F00F0E40F00F0E80F00F0EC0F00F073
:10B9400003210A4802680A430260094802680A4360
:10B9500002600849084A094B9B1A03DD043BC8589A
:10B96000D050FBDC064880470648004724050040CD
:10B970005405004068D4010000200020502400201D
:10B9800031B8010021610100FEE7FEE7FEE7FEE7B6
:10B99000FEE7FEE78446081C6146FFE71FB500F09E
:10B9A000A3F8002801D40021C8421FBD10B500F043
:10B9B0002BF84042013010BD10B500F095F800287A
:10B9C00001DB002010BD012010BDC04610B500F005
:10B9D0008BF8002801DD002010BD012010BDC046FD
:10B9E00010B500F039F8002801DC002010BD01205E
:10B9F00010BDC04610B500F02FF8002801DA002075
:10BA000010BD012010BDC0464A02430270B55C0A59
:10BA1000550A43004A001B0EC60F120EC90FFF2B1A
:10BA200005D0FF2A08D0012093420BD070BD012021
:10BA3000002CFBD1FF2AF6D10120002DF6D10120E8
:10BA40009342F3D1AC42F1D18E4203D0002BEDD121
:10BA5000002CEBD10020E9E74A024302F0B55C0A72
:10BA6000550A43004A001B0EC60F120EC90FFF2BCA
:10BA700026D0FF2A29D0002B0CD160426041844699
:10BA8000002A0AD0002816D18E4221D0002E14D1CF
:10BA9000012014E0002AF7D194466F426F416046BE
:10BAA000002805D1002FEFD00120002E07D004E0A0
:10BAB0000020002F03D10029EAD101204042F0BD2F
:10BAC000002CD6D002204042F9E7002DD3D0F9E770
:10BAD0009342DBDC04DBAC42D8D80020AC42EED28F
